:020000040800F2
:100000008006002051020008590200085B02000827
:100010005D0200085F0200086102000800000000A5
:100020000000000000000000000000006302000863
:10003000650200080000000067020008F9130008CC
:100040006B0200086B0200086B0200086B020008DC
:100050006B0200086B0200086B0200086B020008CC
:100060006B0200086B0200086B0200086B020008BC
:100070006B0200086B0200086B0200086B020008AC
:100080006B0200086B0200086B0200080000000011
:100090000000000000000000000000006B020008EB
:1000A0006B0200086B0200086B0200086B0200087C
:1000B0006D1400086B0200086B0200086B02000858
:1000C0006B0200086B0200086B0200086B0200085C
:1000D0006B0200086B0200086B02000800000000C1
:1000E0006B0200086B0200086B02000800000000B1
:1000F0000000000000000000000000006B0200088B
:10010000000000006B0200086B0200086B02000890
:1001100000000000000000000000000000000000DF
:100120006B0200086B0200086B0200086B020008FB
:100130006B0200080000000000000000000000004A
:100140000000000000000000000000006B0200083A
:100150006B0200086B0200086B0200086B020008CB
:100160006B0200086B0200080000000000000000A5
:10017000000000000000000000000000000000007F
:10018000000000006B0200080000000000000000FA
:100190006B0200086B02000800F002F800F049F85A
:1001A0000AA090E8000C82448344AAF10107DA45D2
:1001B00001D100F03EF8AFF2090EBAE80F0013F0DB
:1001C000010F18BFFB1A43F0010318474821000034
:1001D00068210000103A24BF78C878C1FAD85207C5
:1001E00024BF30C830C144BF04680C6070470000B1
:1001F0000023002400250026103A28BF78C1FBD830
:10020000520728BF30C148BF0B607047662902F013
:100210003580002070471FB502F023F800F09CFAEB
:1002200004000020002101F08FFFE0601FBD10B529
:1002300010BD00F0ADFB1146FFF7EDFF01F03CFBF8
:1002400000F0CBFB03B4FFF7F2FF03BC00F00EFCA1
:100250000948804709480047FEE7FEE7FEE7FEE75A
:10026000FEE7FEE7FEE7FEE7FEE7FEE70448054996
:10027000054A064B70470000511400089901000818
:1002800080000020800600208002002080020020E4
:100290000FB4044910B503AA029800F04BFA10BC41
:1002A0005DF814FB6C0000202DE9F0410E46044679
:1002B000002020622046E168884730B3252805D019
:1002C000D4E901219047206A401CF2E7E16820460A
:1002D00000278847050018D0A5F14100192802D849
:1002E00020354FF400673246294620462760FFF745
:1002F0008DFF40B1012804D0F61D26F00706083610
:10030000D8E7361DD6E72846DAE7206ABDE8F0814F
:100310007047704770472DE9FF4F0C461E464FF05F
:10032000FF378BB0D2E90001DDF860800A908A4681
:10033000C1F30A5505B93D46002108464FF00000BB
:10034000BAF1000F00F4400005DA00EB80004FF432
:10035000400101EA50004FEA9059B9F1010F00DD68
:10036000B9460A9850EA4A000ED044F61050A5F259
:10037000FF3545432F14B8F1000F1ED07542291EDA
:100380001EDDC9F100021CE0B8F1010F4FF00000C2
:1003900001D0302103E0F24305E02154401CB0427B
:1003A000FBDB30460022002121540B99C1F8088064
:1003B000C1E900200FB0BDE8F08FBD1B6D1CDEE76A
:1003C0004A4600DA694206A800F068FA06AB93E8EC
:1003D000070003AB83E8070050460A9901F0D3FAFF
:1003E0008DE80700A0F500501F3800900398002DFD
:1003F0000ADD42F21F014A460844002303A9039084
:10040000684601F03DFD09E0A0F500504A461F385E
:10041000002303A90390684601F047FD8DE807001B
:100420000004000C03D04FF0FF30410800E01046FC
:10043000B8F1000F03D00022009215461EE0751E91
:1004400005D400F08DF9303262556D1EF9D5B346F2
:100450000122084302D000227F1C04E020783028CB
:1004600001D100227F1E002A099784D01DE0112DA2
:1004700007DA00F075F9303262556D1C50EA01025E
:10048000F5D1084302D00098C8B10EE00021681EE3
:1004900005E0235C625C63542254401E491C814287
:1004A000F7DBAB46A81B401E0990002004F80B00A8
:1004B0000B98099AC0F80880C0E9002B7AE711264A
:1004C0004FF0000857E72DE9F04F88460446D21D4B
:1004D00022F0070191B0D1E90001CDE90A0101F054
:1004E0001BFE02460B98C00F01D02D2007E02068AC
:1004F000810701D52B2002E0202101EAC000032A58
:10050000099001D0072A05DB03464146204600F04A
:1005100085F90BE12078800601D5E06900E006202E
:10052000B8F1650F814606D0B8F1660F18D0B8F162
:10053000670F70D131E00020B9F1110F009001DB9D
:10054000112301E009F101030AAA01A90CA8FFF790
:10055000E2FEDDE90C70002609F10105834647E063
:1005600001204B4600904FF000470AAA01A90CA8B1
:10057000FFF7D1FEDDE90DB00C995D46002610B9FC
:1005800009F101000D18B9EB050003D4C0F1FF36E5
:1005900009F10105A5EB09002BE0B9F1010F01DA22
:1005A0004FF001090020B9F1110F0090484601DD1C
:1005B000112300E003460AAA01A90CA8FFF7ABFE2D
:1005C000DDE90C704D4600268346207800070AD4EA
:1005D000AB4500DA5D4601A8012D04DD411911F893
:1005E000011C302907D04F4502DA17F1040F04DA55
:1005F000012082460FE06D1EEEE7002F02DCED1BAE
:100600003E4403E0781CA84200DD7D1CB81B00F1CD
:10061000010A4FF000472078000703D4AA4501DB08
:100620004FF0FF3A0021B7F1004F0DF143088DF86C
:10063000431024D002202B23002F01DA7F422D23E8
:100640000A21021EA0F1010000DC5FB197FBF1FC62
:1006500097FBF1F201FB1C7C17460CF1300C08F8FB
:1006600001CDEEE7A8F1010003702188090501D54D
:10067000452100E06521A0F1010800F8011C09985E
:100680000FA9A1EB0807FF1D00B10120411901EBE3
:10069000EA70A1693844081A401EA0612078C0069B
:1006A00002D42046AFF30080099828B1D4E9012193
:1006B0009047206A401C20622078C00622D5204640
:1006C000AFF300801EE0002E04DBB34502DD01A87D
:1006D000805D00E03020D4E901219047206A401C71
:1006E0002062761CAAF101005FEA000A0AD100F03C
:1006F00033F8C0680168405CD4E901219047206A62
:10070000401C2062281EA5F10105DCDC07E0D4E9CD
:10071000012118F8010B9047206A401C2062381E06
:10072000A7F10107F3DC2046AFF30080032011B0EE
:1007300041E60000074B70B50D467B4400F05BF8C6
:100740000446284600F01CF910B14FF0FF3070BD90
:10075000204670BD4311000000487047280000206B
:1007600030B5B0F10A0271F100034FEA900E4EEA83
:10077000817EB0EB0E0061EB91014FEA101E4EEA54
:10078000017E10EB0E0041EB11114FEA102E4EEAE4
:10079000016E10EB0E0041EB11214FEA104E4EEAB4
:1007A000014E10EB0E0041EB1141401841F10001E8
:1007B0004FEAD00040EA41704FEAD1014FEA81048C
:1007C00044EA907410EB800544EB01046D1944EB8E
:1007D0000404521BA3414FF0000348BF0A3200D566
:1007E00030BD401C41F1000130BD000001694A1CD0
:1007F00002610878704700B58FB0CDE90131002162
:10080000059105497944CDE9031011466846FFF783
:100810004BFD0FB000BD0000E5FFFFFF2DE9F041EB
:100820001F46044603260168072A01F4006004DB22
:1008300008B116A505E016A503E008B115A500E06E
:1008400015A521F010002060A069C01EA0610FB1A5
:10085000401EA0612046AFF300804FB1D4E90121D2
:1008600038469047206A401C2062C01C206206E087
:10087000206AFAE7D4E9012115F8010B9047761EAA
:10088000F8D22046AFF30080BDE8F0814E414E0023
:100890006E616E00494E4600696E66002DE9F047B4
:1008A000814616468AB0354878440DC88DE80D005B
:1008B00032487844801C03AC0DC884E80D0041F632
:1008C0009B300844372190FBF1F290FBF1F5A5F144
:1008D000800501FB12041B3C02D56442012000E0AC
:1008E0000020DFF898A080460027FA44AAF1BE0A4B
:1008F0000EE0E0070AD03246684607EB47010123C5
:100900000AEB810101F0D1FA8DE8070064107F1C29
:10091000002CEED1194F7F44AE3F19E0E80715D007
:1009200007EB04100DF1180A90E80E008AE80E009B
:10093000C068F04201D1981908903246012306A9F7
:1009400003A801F0B2FA03AB83E807006D10641C42
:10095000002DE3D14FF0010332466946B8F1000F94
:1009600003A802D001F08CFA01E001F09EFAC9E977
:100970000001C9F808200AB0BDE8F087501A00004D
:10098000007B00F08000704700487047080000209E
:100990007546FFF7F9FFAE4605006946534620F05D
:1009A0000700854618B020B5FFF760FCBDE8204081
:1009B0004FF000064FF000074FF000084FF0000B1B
:1009C000AC46ACE8C009ACE8C009ACE8C009ACE88A
:1009D000C00921F007018D46704710B50446AFF3FA
:1009E00000802046BDE81040FFF72CBC000000004E
:1009F00030B44FF0013C50F8042B51F8043BCCFAD2
:100A000052F4D51A20D1FCB950F8042B51F8043B0C
:100A1000CCFA52F4D51A17D1B4B950F8042B51F8C6
:100A2000043BCCFA52F4D51A0ED16CB950F8042B11
:100A300051F8043BCCFA52F4D51A05D1002CDAD087
:100A400030BC4FF00000704729BAB1FA81F111F0C3
:100A50001801D1F120008440F2D1CA40CB4012F0FD
:100A6000FF0213F0FF0330BCD01A70470149182071
:100A7000ABBEFEE7260002007047000070B50546D9
:100A800040F60000C4F20200144685420E460DD026
:100A900040F20040C4F2020085420AD00020C4F2B5
:100AA0000200854207D100F019FC04E000F02AFCA6
:100AB00001E000F01DFC28463146224600F002F815
:100AC00070BD000080B549004FF0030CD0F800E085
:100AD0000CFA01F32EEA03030360036802FA01F142
:100AE0001943016080BD000080B549004FF0030C40
:100AF000D0F808E00CFA01F32EEA03038360836860
:100B000002FA01F11943816080BD0000012A0AD078
:100B1000002A18BF70470122436802FA01F123EA54
:100B20000101416070470122436802FA01F1194353
:100B30004160704780B549004FF0030CD0F80CE0DD
:100B40000CFA01F32EEA0303C360C36802FA01F151
:100B50001943C16080BD00005422806851430139AF
:100B600081624FF6FF71C162704700002DE9F041CC
:100B700016460D460746C0E9001200F09FF8D7E977
:100B80000248284631460222C7F81080FFF776FF58
:100B9000284631460322FFF7A7FF4FF6FF70C4F245
:100BA000000084424FF001000BDC40F2FF71C4F200
:100BB00000018C4213DCB4F1804F2BD040F2004096
:100BC00015E044F2FF31C4F201018C4215DC002132
:100BD000C4F201018C421DD044F2000015E040F641
:100BE0000000C4F20000844205D040F60040C4F288
:100BF000000084421CD102200CE044F20040C4F208
:100C00000100844205D044F60000C4F20100844291
:100C10000ED10320F11706EB517121F00701F210FC
:100C2000711A05EB82028900136A8840184310622A
:100C300020460121012500F0CBFC2046012100F0D7
:100C400077FC5320A0624FF6FF70E06220686FF0DF
:100C5000020120F001002060A06901EB880140F052
:100C60000100A061A069052240F48070A061E069E4
:100C700002FA01F140F00100E061E06940F48070A7
:100C8000E061226A6FF0030022EA0101216200EBB9
:100C90008800216A05FA00F008432062E06805FA3E
:100CA00008F10843E060E06840F00100E06020687F
:100CB00040F001002060BDE8F0810000D0E9002193
:100CC00040F60003C4F202039A4219D040F20043F6
:100CD000C4F202039A4220D00023C4F202039A42D3
:100CE0003CD10F293AD8DFE801F0083A3939390800
:100CF00028393D444B39393939084FF080414CE0AF
:100D00000639032988BF7047DFE801F0171C02216C
:100D100040F20041C4F200014FE0033907291DD819
:100D2000DFE801F01D0B10353F04044940F200419B
:100D3000C4F2000101F580613FE040F20041C4F2DD
:100D400000012AE040F20041C4F200012FE040F22D
:100D50000041C4F200010422C0E9021270474FF0C2
:100D6000804124E040F20041C4F2000101F57C41E1
:100D700013E040F20041C4F2000101F57C4116E0AD
:100D800040F20041C4F2000101F57C4115E040F25F
:100D90000041C4F2000101F580610122C0E90212A4
:100DA000704740F20041C4F2000101F58061022267
:100DB000C0E9021270474FF080410322C0E90212DD
:100DC0007047000070B5D0E9023501616FF0020094
:100DD00000EB810001261C6A06FA00FC24EA0C04E0
:100DE0001C62DC6806FA01FE24EA0E064C1E032C87
:100DF000DE602AD8DFE804F0021A07151C4654F812
:100E0000186F012D03E01C4654F81C6F032D26F0CB
:100E100003062660266814BF46F0020546F0010569
:100E200012E01C4654F81C6F042D03E01C4654F8D5
:100E3000186F022D26F440762660266802D146F40B
:100E4000807501E046F40075256005241D6A04FAEA
:100E500000F0890025EA0004022A1C6206D0012A5B
:100E600007D052B91A6AC043104005E01A6A10430D
:100E700002E0186A40EA0C001862081F01211A6A91
:100E800001FA00F010431862D86840EA0E00D860FA
:100E900070BD00002DE9F04740F2244940F2200ADD
:100EA00040F2440815460E460746C4F20209C4F251
:100EB000020AC4F20108C0E9001200F053F9D7E9B0
:100EC0000247304629460222FFF7D8FD3046294620
:100ED0000222FFF709FE304629460022FFF716FEE0
:100EE000304629460022FFF725FEA9000F22DAF836
:100EF000000002FA01F39843CAF8000045F340707D
:100F000001EB507020F00700C0EB8500DAF80460B8
:100F100082409643CAF80460DAF8006426EA0303C4
:100F2000CAF80034D9F80030934340F6FF32C4F2D7
:100F300000029442C9F8003011DD43F6FF73C4F299
:100F400001039C4270DC40F60043C4F200039C4263
:100F500043D00023C4F201039C4203D092E0B4F1D9
:100F6000804F2ED1072D0BD80123DAF800608B407B
:100F70001E43CAF80060DAF800643343CAF800344C
:100F800025F00703082B0BD10123DAF80460834016
:100F90001E43CAF80460D9F800603343C9F8003032
:100FA00094420EDD44F60002C4F20102944247D09E
:100FB00044F20002C4F20102944241D040F60042E1
:100FC00007E040F20042C4F20002944205D040F62D
:100FD0000002C4F20002944254D1072D0BD8022221
:100FE000DAF800308A401343CAF80030DAF80034E7
:100FF0001A43CAF8002425F00702082A0BD102225E
:10100000DAF8043082401343CAF80430D9F80030CB
:101010001A43C9F8002044F6000344F40062C4F205
:1010200001039A420CD02DE044F20002C4F2010206
:10103000944205D044F60002C4F20102944221D148
:10104000072D0DD80322DAF8003002FA01F143EA45
:101050000102CAF80020DAF800241143CAF800148B
:1010600025F0070108290DD10321DAF8042001FA3F
:1010700000F042EA0001CAF80410D9F80010084351
:10108000C9F8000020460121A8F1440500F0A0FAAB
:10109000206800202060E06A791E03294DD84008AE
:1010A000DFE801F002122233A16904F1340221F0D9
:1010B0007001A161A16941F06001A161A16941F0E4
:1010C0000801A161012130E0A16904F1380221F495
:1010D000E041A161A16941F4C041A161A16941F46C
:1010E0000061A161102120E0E16904F13C0221F0DE
:1010F0007001E161E16941F06001E161E16941F0A4
:101100000801E1614FF480710FE0E16904F14002F0
:1011100021F4E041E161E16941F4C041E161E1694B
:1011200041F40061E1614FF480511060206A20F0C9
:1011300002002062206A08432062AC4205D1D8F840
:10114000000040F40040C8F80000206840F00100B2
:101150002060BDE8F087000080B5806800F0C2FA2A
:1011600080BD0000D0E9002140F60003C4F2020374
:101170009A4219D040F20043C4F202039A4220D0AE
:101180000023C4F202039A423CD10F293AD8DFE887
:1011900001F0083A3939390828393D444B39393991
:1011A00039084FF080414CE00639032988BF704769
:1011B000DFE801F0171C022140F20041C4F20001F7
:1011C0004FE0033907291DD8DFE801F01D0B10356A
:1011D0003F04044940F20041C4F2000101F580617E
:1011E0003FE040F20041C4F200012AE040F2004139
:1011F000C4F200012FE040F20041C4F200010422D9
:10120000C0E9021270474FF0804124E040F20041F3
:10121000C4F2000101F57C4113E040F20041C4F248
:10122000000101F57C4116E040F20041C4F20001EA
:1012300001F57C4115E040F20041C4F2000101F5E6
:1012400080610122C0E90212704740F20041C4F2FD
:10125000000101F580610222C0E9021270474FF0DF
:1012600080410322C0E902127047000043F6080CD7
:10127000D0E90212C4F2020C886ADCF8003003F0F4
:101280000303022B01D1542307E0DCF8003003F004
:101290000303B3FA83F35B091B01013A032A88BFF6
:1012A00070470130B3FBF0F001EE100AB8EE411ABE
:1012B00021EE000ABCEEC00A10EE100ADFE802F0D0
:1012C000020B05083431086070473C3108607047F4
:1012D00040310860704738310860704743F630008D
:1012E000C4F20200016841F0010101607047000092
:1012F00043F63000C4F20200016841F002010160CF
:101300007047000043F63000C4F20200016841F06B
:10131000040101607047000043F60800C4F20200B7
:10132000D0F8F81321F00F01C0F8F813D0F8F81333
:1013300041F00201C0F8F81350F8081C41F0010117
:1013400040F8081C50F8081C8907FBD550F8081C09
:10135000542221F0807140F8081C50F8041C21F43C
:10136000800140F8041C50F8041C40F8041C50F89C
:10137000041C62F38E1140F8041C50F8041C08226F
:1013800062F3050140F8041C50F8041C21F44031BC
:1013900040F8041C50F8081C41F0807140F8081C0B
:1013A00050F8081C8901FBD4016821F00301016099
:1013B000016841F002010160016801F00C01082997
:1013C000FAD1016821F0F0010160016821F4E051D7
:1013D0000160016841F480510160016821F46041BD
:1013E000016040F200004BF60051C2F20000C0F272
:1013F000015101607047000040F26800C2F2000035
:101400000168002908BF7047016801390160704711
:1014100080B54EF21001CEF2000140F641230A6879
:1014200058434FF0FF33002203EB40100A6048603E
:101430008A60086840F004000860086840F0020014
:101440000860086840F00100086000F0EBF980BD1A
:101450004EF68850CEF20000016841F47001016040
:101460004FF0006140F8801C7047000080B54FF0DD
:10147000804000F01DFA50B140F27400C2F200004A
:101480000168013101604FF0804000F0EBF94FF04E
:101490008040032100F006FA70B13C20C4F2000045
:1014A00090ED000A40F27C00B8EE400AC2F2000063
:1014B00080ED000A03212FE04FF08040042100F06E
:1014C000F1F9002808BF80BD3C20C4F2000090ED77
:1014D000010A40F27C00C2F2000090ED001A40F2D6
:1014E0007400C2F200000168B8EE400A090430EE50
:1014F000410A01EE101AB8EEC11A30EE010AB2EE3E
:10150000041A40F2780120EE010AC2F2000181EDD6
:10151000000A0021016004214FF0804000F09AF998
:1015200080BD0000C16841F00101C160704700004A
:1015300010B5044600F04CF82046FFF7F3FF40F6E4
:10154000FF30C4F20000844212DD43F6FF70C4F2A3
:10155000010084421DDC40F60040C4F200008442D9
:1015600025D00020C4F20100844226D1192427E0AE
:10157000B4F1804F1DD040F20040C4F2000084421C
:101580001DD040F60000C4F20000844215D11E2494
:1015900016E044F20000C4F2010084420BD044F68D
:1015A0000000C4F20100844207D11A2408E032246A
:1015B00006E01C2404E0182402E0002400E01D24BE
:1015C000204600F00FF9204600F034F910BD00006D
:1015D00010B5044640F6FF30C4F20000844219DD25
:1015E00043F6FF70C4F2010084422BDC40F6004059
:1015F000C4F2000084423AD00020C4F201008442C8
:1016000058D143F64000C4F20200426842F00102A1
:1016100042604FE0B4F1804F32D040F20040C4F25B
:10162000000084423ED040F60000C4F20000844234
:1016300040D143F64000C4F20200026842F00402C6
:10164000026037E044F20000C4F20100844220D07E
:1016500044F60000C4F2010084422BD143F640005E
:10166000C4F20200426842F48022426022E043F663
:101670004000C4F20200026842F00802026019E071
:1016800043F64000C4F20200026842F00102026028
:1016900010E043F64000C4F20200426842F4803297
:1016A000426007E043F64000C4F20200026842F0E4
:1016B00002020260204600F009F8206820F01000C5
:1016C0002060206840F00100206010BD01EB810126
:1016D00042F2CF02490082624FF0FF3212FA81F1EA
:1016E000C1627047532282624FF0FF3212FA81F1D9
:1016F000C162704780B543F63000C4F20200016950
:1017000041F2171241F400310161016841F0010119
:1017100001600020C4F20200016821F0F0010160C4
:10172000016841F0A0010160016A41F4EE410162EB
:10173000816841F0F0018160C16821F0F001C16071
:10174000C16841F05001C160416821F00C01416065
:1017500044F20C40C4F20000016821F40051016021
:10176000016821F480510160016821F48061016009
:10177000416821F440514160016821F40041016059
:1017800050F8041C114340F8041C016841F00C019E
:101790000160816841F0C0018160016841F400513D
:1017A0000160016841F020010160262000F04AF844
:1017B000262000F027F880BD62B14FF0000C00BF7A
:1017C00003681B06FCD511F80C300CF1010C944594
:1017D0004360F5D101684906FCD5016821F040015C
:1017E00001607047C1B200F01F00012202FA00F050
:1017F0004EF20012CEF2000242EAD10121F00301C2
:1018000008607047C1B200F01F00012202FA00F028
:101810004EF20012CEF2000242EAD10121F00301A1
:10182000086070474EF62350CEF200003021017060
:1018300070470000E421C0F2E00161F31F20102195
:1018400001707047E421C0F2E00161F31F20102114
:10185000017070470122036902FA01F123EA0101D4
:1018600001617047016900210161704740F2680120
:10187000C2F20001086000BF08680028FCD1704770
:1018800010B582B004468DF8070044F20040C4F25F
:1018900000000DF107010122FFF78EFF204602B084
:1018A00010BD00000069C84000F001007047000052
:1018B000006900F00100704700F02EF840F2780552
:1018C0009FED108A9FED109A40F27006C2F200055B
:1018D000C2F200060DA400BF95ED000A20EE080A32
:1018E00080EE090A10EE100A86ED000A00F048FCAE
:1018F000024620460B46FEF7CBFC4FF4FA70FFF78A
:10190000B5FFE9E70000AA4300409C462566205B3E
:10191000636D5D0D0A000000B0B58AB0FFF7FCFCF6
:101920000120FFF775FDFFF7E5FE40F2004506AC2C
:10193000C4F20205204629460622FFF7ABFA2046EC
:101940004CF25031FFF708FCB2EE040A2046FFF7D4
:101950008DFC01AC204629460A22FFF707F92046F4
:101960000A21FFF7F9F8204603210022FFF72AFA9F
:10197000204604210122FFF725FA4FF08040FFF7AF
:10198000D1FD0AB0B0BD5FEA400C08BF91F0000F76
:101990004FEA8C234FEAC12243EA51514FEA1C50CF
:1019A00018BF00F5F0404FEA300018BF41F0004189
:1019B0005FEA6C5C00F02980BCF1FF3F08BF40F09B
:1019C00080407047130C06BF12044FF0100C4FF00C
:1019D000000C130E04BF12020CF1080C130F04BF0D
:1019E00012010CF1040C930F04BF92000CF1020CD5
:1019F000D30F04BF52000CF1010C11464FF000024E
:101A0000A0F11F00A0EB0C00704711F0004F08BFC1
:101A1000704731F000413FF4D5AF0B0C06BF09040D
:101A20004FF0100C4FF0000C0B0E04BF09020CF12C
:101A3000080C0B0F04BF09010CF1040C8B0F04BF41
:101A400089000CF1020CCB0F04BF49000CF1010C12
:101A5000CCF1200322FA03F341EA030102FA0CF26B
:101A6000A0EB0C0000F101007047000023F07F475D
:101A700020F07F4C80EA030000F00040ACEB07034D
:101A800003F57C5303F1FF032DE9804909B44FEAC4
:101A9000144324EA03484FEA154B25EA0B4E0FF294
:101AA000042606EB13273E7803FB0667C7F50007FD
:101AB00007FB06F64FEAD64606F102064FEA543710
:101AC00007FB066CCCF1005C4FEA1C472CEA074C84
:101AD0000CFB06F507FB06F404EB15464FEA9616D9
:101AE00049085FEA320234BF00204FF000404FEA5D
:101AF000D13706FB07FC4FEA1C4C0CFB0BF7D21B43
:101B000003FB0CF761EB07010CFB0EF7B0EB074092
:101B100072EB17420CFB08F734BFA2EB0742B2EBA3
:101B2000074261EB17414FEA0C444FEA910706FB6D
:101B300007FC4FEA1C4C0CFB0BF7B0EBC74072EBF9
:101B4000573203FB0CF734BFA2EBC742B2EBC742DC
:101B500061EB57310CFB0EF7B0EBC70072EB57721D
:101B60000CFB08F734BFA2EBC702B2EBC70261EB74
:101B700057714FEA816141EA92114FEA826242EA6B
:101B800090124FEA806004EBCC04039F4FEAD137F8
:101B900006FB07FC4FEA1C4C0CFB0BF7D21B03FBAC
:101BA0000CF761EB07010CFB0EF7B0EB074072EB93
:101BB00017420CFB08F734BFA2EB0742B2EB074217
:101BC00061EB17414FEA8C5504EB9C244FEA9107D7
:101BD00006FB07FC4FEA1C4C0CFB0BF7B0EBC740B5
:101BE00072EB573203FB0CF734BFA2EBC742B2EBE8
:101BF000C74261EB57310CFB0EF7B0EBC70072EB3D
:101C000057720CFB08F734BFA2EBC702B2EBC70256
:101C100061EB57714FEA816141EA92114FEA8262AA
:101C200042EA90124FEA806015EB4C2544F1000423
:101C30004FEAD13706FB07FC4FEA1C4C0CFB0BF7B5
:101C4000D21B03FB0CF761EB07010CFB0EF7B0EBAB
:101C5000074072EB17420CFB08F734BFA2EB0742B8
:101C6000B2EB074261EB17414FEA813141EA924101
:101C70004FEA823242EA90424FEA80304FEA0C76D5
:101C800015EB1C1544F1000448EA03434EEA0B48E7
:101C90004FF0000EB2EB080C71EB030724BF624655
:101CA00039464EEB0E0E4FF0000B001852414941E1
:101CB0004BEB0B0BB2EB080C71EB03077BF1000B4A
:101CC00024BF624639464EEB0E0E4FF0000B001853
:101CD000524149414BEB0B0BB2EB080C71EB030784
:101CE0007BF1000B24BF624639464EEB0E0E51EAE3
:101CF000020718BF46F0010616EB0E7655F10002FA
:101D000054F1000103D5BDE88901BDE80088BDE8B4
:101D10008901BDE80048B619524141EB0101A3F128
:101D20000103704780807F7E7D7C7B7A797877762F
:101D300076757473727171706F6E6E6D6C6C6B6AA8
:101D40006A69686867666665646463636261616046
:101D5000605F5F5E5E5D5D5C5C5B5B5A5A595958C3
:101D6000585757565655555554545353525252512D
:101D7000515050504F4F4F4E4E4D4D4D4C4C4C4B83
:101D80004B4B4A4A4A4949494848484747474746CA
:101D90004646454545444444444343434342424206
:101DA000424141419C46002B30D477002BD04FEA72
:101DB00037071CB503B44FF010004FF01001BAF113
:101DC000000F06D0BCF1000FDCBF40F0080040F06F
:101DD00008014FF000000FBCBDE810400BF1010BF3
:101DE000BBF1010F08BF5FEA170722BF12F1010222
:101DF00011F101014FF0004143F1000300F00040F8
:101E000043EA00007047F9D35708D0E746EA064690
:101E10004FEA164613F1400F1FDD13F1200FDFBF0D
:101E200016430A46002120335B42BED0C3F120078F
:101E300046EA06464FEA164602FA07F746EA07065A
:101E400022FA03F2C3F1200701FA07F742EA070278
:101E500021FA03F14FF00003A7E746EA020646EA3B
:101E600006464FEA164646EA0106BCBF46EA064663
:101E7000360C4FF000034FF000024FF0000194E7E2
:101E80002DE9804C70B49A46934691E8380007C813
:101E900031EA400C48BF34EA430C03D5FFF7E6FDB6
:101EA000FFF780FFF0BCBDE8008C2DE9804C70B4DA
:101EB0009A46934691E8380007C810F0804F08BF53
:101EC00013F0804F03D100F005F8FFF76BFFF0BC73
:101ED000BDE8008C20F07F4723F07F4C80EA0300B0
:101EE00000F0004007EB0C03A3F57C53A3F1FE03C5
:101EF00092F0000F00F0B38095F0000F00F07780B3
:101F00002DE901494FEA114021EA00484FEA144601
:101F100024EA064700FB06FC08FB06F607FB08F868
:101F200018EB06484CEB164C00FB07F718EB07487C
:101F30004CEB17404FEA124B22EA0B4E4FEA154684
:101F400025EA06470BFB06FC0EFB06F607FB0EFE1A
:101F50001EEB064E4CEB164C0BFB07F71EEB074E29
:101F60004CEB174B18EB0B0840F1000018EB0E0B75
:101F700058EB000840F100008F1A4FF000014FF0BD
:101F800000063CBFC943661B14BFB5EB040C00211F
:101F90003CBFC943F61B4FEA174427EA04454FEA02
:101FA0001C472CEA074C04FB076205FB07F70CFBF8
:101FB00005F616EB074642EB174204FB0CFC16EB4A
:101FC0000C4642EB1C421BEB060658EB0202414159
:101FD0004EEA8E0E46EA9E0601D5BDE80189B61985
:101FE000524141EB0101A3F10103BDE801894FEA30
:101FF000144524EA05464FEA114721EA074C05FB40
:1020000007F406FB07F70CFB06F111EB074144EB65
:10201000174405FB0CFC11EB0C4144EB1C444FEA4C
:10202000124722EA074C05FB07F206FB07F70CFBF9
:1020300006F616EB074642EB174205FB0CFC16EBC7
:102040000C4642EB1C456A1854F1000148BF70472A
:10205000B619524141EB0101A3F10103704795F01C
:10206000000F37D04FEA114221EA02464FEA1447E7
:1020700024EA074C02FB07F106FB07F70CFB06F40A
:1020800014EB074441EB174102FB0CFC14EB0C442E
:1020900041EB1C414FEA154725EA074C02FB07F5C7
:1020A00006FB07F70CFB06F616EB074645EB174554
:1020B00002FB0CFC16EB0C4645EB1C42121951F1CD
:1020C000000148BF7047B619524141EB0101A3F12D
:1020D000010370474FEA144524EA05464FEA1147C9
:1020E00021EA074C05FB07F106FB07F70CFB06F29C
:1020F00012EB074241EB174105FB0CFC12EB0C42C3
:1021000051EB1C414FF0000648BF7047921841EB5D
:102110000101A3F10103704703B401984100009845
:1021200050EAC12018BF04204A0D18BF40F001003A
:1021300040F2FF72B2EB515F08BF40F0020001288D
:1021400008BF052002B0704710B500290AD00878F2
:10215000002807D005487844FEF74AFC002801D043
:10216000002010BD0248784410BD0000DE010000D0
:10217000D60100000808A0F500114FEA31017047B0
:1021800043004FEAD30C4FEA3C0C43401FBF4007CB
:102190000CF1605113F0FE4F70471CF0006F03D13B
:1021A0000CF00041002070470CF0004343EA5070EF
:1021B00040EACC0010B500F00EF800BF000000921D
:1021C0004FEA0001FFF7D6BF4FF00041A1F5002113
:1021D0004FF0000070470EF1020E2EF0030E5EF875
:1021E000044B244204D44FEA4102B2F17F4F11D88C
:1021F0004FEA4003B3F17F4F0CD80ED14FEAD07CA9
:102200000CEB4C0C0CF1020CB2F17F4F08BF4CEB05
:10221000D17C04E04FF0080C01E04FEAD17C0CEBDC
:102220004C0324FA03F404F00704B4F1040C06D2BE
:102230000EEB840CBDE810404CF0010C6047DFE869
:102240000CF0070802024FF00040A0F5800010BD1E
:102250000846420018BFD2F1807288BF00F00040EB
:1022600010BDF1EE100A4FF6FF71C0F2C03120EA46
:10227000010040F04070E1EE100A7047FEF723B90C
:1022800002400000000000A0000000000540000027
:10229000000000C8000000000C4000000000409C4E
:1022A00000000000194000000020BCBE000000003B
:1022B00034400000BFC91B8E00000004B540000080
:1022C000504BCFD06607E2CF010000006C41000008
:1022D0003E8251AADFEEA73401000000D94200007F
:1022E000DCB5A0E23A301F97FFFFFFFFB4450000C6
:1022F000FD25A0C8E9A3C14FFFFFFFFFFF3F00007E
:102300000000008000000000FF3F0000000000808F
:10231000000000005023000800000020080000001A
:10232000D4010008582300080800002078060000A7
:10233000F00100081C00000043000000F8FFFFFF50
:102340000C0000000E0000000F0000002E00000036
:082350000024F400000000006D
:040000050800019955
:00000001FF
