:020000040800F2
:10000000F806002041020008490200084B020008DF
:100010004D0200084F0200085102000800000000D5
:100020000000000000000000000000005302000873
:100030005502000800000000570200088107000870
:100040005B0200085B0200085B0200085B0200081C
:100050005B0200085B0200085B0200085B0200080C
:100060005B0200085B0200085B0200085B020008FC
:100070005B0200085B0200085B0200085B020008EC
:100080005B0200085B0200085B0200080000000041
:100090000000000000000000000000005B020008FB
:1000A0005B0200085B0200085B0200085B020008BC
:1000B0005B0200085B0200085B0200085B020008AC
:1000C0005B0200085B0200085B0200085B0200089C
:1000D0005B020008F507000899080008000000000E
:1000E0005B0200085B0200085B02000800000000E1
:1000F0000000000000000000000000005B0200089B
:10010000000000005B0200085B0200085B020008C0
:1001100000000000000000000000000000000000DF
:100120005B0200085B0200085B0200085B0200083B
:100130005B0200080000000000000000000000005A
:100140000000000000000000000000005B0200084A
:100150005B0200085B0200085B0200085B0200080B
:100160005B0200085B0200080000000000000000C5
:10017000000000000000000000000000000000007F
:10018000000000005B02000800000000000000000A
:100190005B0200085B02000800F002F800F041F882
:1001A0000AA090E8000C82448344AAF10107DA45D2
:1001B00001D100F036F8AFF2090EBAE80F0013F0E3
:1001C000010F18BFFB1A43F001031847F80C000099
:1001D000180D0000103A24BF78C878C1FAD8520729
:1001E00024BF30C830C144BF04680C6070470000B1
:1001F0000023002400250026103A28BF78C1FBD830
:10020000520728BF30C148BF0B607047732900F008
:10021000F980002070471FB500F016FE1FBD10B515
:1002200010BD00F021F91146FFF7F5FF00F0BEFC0C
:1002300000F03FF903B4FFF7F2FF03BC00F046F90A
:100240000948804709480047FEE7FEE7FEE7FEE76A
:10025000FEE7FEE7FEE7FEE7FEE7FEE704480549A6
:10026000054A064B70470000D907000899010008AD
:10027000F8000020F8060020F8020020F802002014
:100280000FB4044910B503AA029800F0BFF810BCDF
:100290005DF814FB740000202DE9F0410E46044681
:1002A000002020622046E168884730B3252805D029
:1002B000D4E901219047206A401CF2E7E16820461A
:1002C00000278847050018D0A5F14100192802D859
:1002D00020354FF400673246294620462760FFF755
:1002E00095FF40B1012804D0F61D26F00706083618
:1002F000D8E7361DD6E72846DAE7206ABDE8F08160
:1003000070B50C460546012A05D02878800600D530
:10031000EA69002302E0012305E05B1C934202D25C
:10032000E05C0028F9D1A869E618C01AA861286A1B
:10033000184428622846AFF3008004E0D5E9012183
:1003400014F8010B9047B442F8D32846AFF300806D
:1003500070BD0000014900F013BC000074000020D3
:1003600010B5044603E000F00BFC401C09D014F863
:10037000010B05490028F6D1BDE810400A2000F025
:10038000FFBB4FF0FF3010BD740000204FF00002A3
:1003900000B5134694469646203922BFA0E80C507B
:1003A000A0E80C50B1F12001BFF4F7AF090728BF56
:1003B000A0E80C5048BF0CC05DF804EB890028BFD2
:1003C00040F8042B08BF704748BF20F8022B11F0FB
:1003D000804F18BF00F8012B704770477047704777
:1003E00010B5436913B1AFF3008001E0FFF788FF58
:1003F000012010BD127800F124010A7000224A7019
:100400000122EDE711684FF0FF32E9E7074B70B5C5
:100410000D467B4400F011F80446284600F020F811
:1004200010B14FF0FF3070BD204670BD6B0700006B
:1004300001694A1C02610878704700B58FB0CDE9A8
:1004400001310021059105497944CDE90310114698
:100450006846FFF721FF0FB000BD0000E5FFFFFF7A
:10046000007B00F080007047754600F02BF8AE4628
:1004700005006946534620F00700854618B020B5B0
:10048000FFF7ECFEBDE820404FF000064FF00007FC
:100490004FF000084FF0000BAC46ACE8C009ACE8E8
:1004A000C009ACE8C009ACE8C00921F007018D46DD
:1004B000704710B50446AFF300802046BDE81040F9
:1004C000FFF7B8BE0048704710000020014918200F
:1004D000ABBEFEE7260002007047000070B505467F
:1004E00040F60000C4F20200144685420E460DD0CC
:1004F00040F20040C4F2020085420AD00020C4F25B
:100500000200854207D100F0ADF804E000F0BEF82B
:1005100001E000F0B1F828463146224600F002F82A
:1005200070BD000080B549004FF0030CD0F800E02A
:100530000CFA01F32EEA03030360036802FA01F1E7
:100540001943016080BD000080B549004FF0030CE5
:10055000D0F808E00CFA01F32EEA03038360836805
:1005600002FA01F11943816080BD0000012A0AD01E
:10057000002A18BF70470122436802FA01F123EAFA
:100580000101416070470122436802FA01F11943F9
:100590004160704780B549004FF0030CD0F80CE083
:1005A0000CFA01F32EEA0303C360C36802FA01F1F7
:1005B0001943C16080BD0000012A0AD0002A18BF7B
:1005C00070470122436902FA01F123EA0101416106
:1005D00070470122436902FA01F1194341617047F2
:1005E00010B50024C4F20204204605210122FFF7C1
:1005F00075FF204605210122FFF7A6FF20460521B1
:100600000022FFF7B3FF204605210022FFF7C2FFBB
:10061000204606210122FFF761FF20460621012224
:10062000FFF792FF204606210022FFF79FFF20469A
:1006300006210022FFF7AEFF204607210122FFF727
:100640004DFF204607210122FFF77EFF20460721AC
:100650000022FFF78BFF204607210022FFF79AFFB9
:1006600010BD000043F63000C4F20200016841F002
:10067000010101607047000043F63000C4F202003F
:10068000016841F0020101607047000043F630004C
:10069000C4F20200016841F00401016070470000EB
:1006A00043F60800C4F20200D0F8F81321F00F015D
:1006B000C0F8F813D0F8F81341F00201C0F8F813AD
:1006C00050F8081C41F0010140F8081C50F8081CC3
:1006D0008907FBD550F8081C542221F0807140F89E
:1006E000081C50F8041C21F4800140F8041C50F848
:1006F000041C40F8041C50F8041C62F38E1140F8EE
:10070000041C50F8041C082262F3050140F8041C84
:1007100050F8041C21F4403140F8041C50F8081C27
:1007200041F0807140F8081C50F8081C8901FBD486
:10073000016821F003010160016841F002010160DC
:10074000016801F00C010829FAD1016821F0F001DB
:100750000160016821F4E0510160016841F48051B9
:100760000160016821F46041016040F200004BF635
:100770000051C2F20000C0F2015101607047000058
:1007800040F27000C2F200000168002908BF704703
:10079000016801390160704780B54EF21001CEF258
:1007A000000140F641230A6858434FF0FF3300220E
:1007B00003EB40100A6048608A60086840F004005B
:1007C0000860086840F002000860086840F0010016
:1007D000086000F0BBF980BD4EF68850CEF20000F4
:1007E000016841F4700101604FF0006140F8801C25
:1007F00070470000B0B541F20004C4F20104204685
:1008000000F0D0F9002808BFB0BD204600F044F940
:1008100040F20401C2F20001096840F2F00540F222
:10082000E004C2F200058142C2F20004287008D13F
:1008300040F27800C2F20000012101600020206037
:10084000B0BD40F20801C2F2000120680968884288
:100850000ADD0020206040F27C00C2F20000FFF7B9
:1008600095FD06A0FFF77CFD2878216840F27C0208
:10087000C2F200025054481C2060B0BD4552524F95
:1008800052203A20546F6F206C6F6E672073747221
:10089000696E670D00000000B0B544F20044C4F278
:1008A0000004204600F07EF9E0B1204600F0F4F8A4
:1008B00040F2F105C2F20005287004F54C402946CB
:1008C000012200F01DF92878FFF744FD40F20401F1
:1008D000C2F2000128780968814218BFB0BD02A0A9
:1008E000FFF73EFDB0BD00BF0D0000002DE9F04F49
:1008F00081B043F6440AC4F2020A04465AF8140CC2
:10090000174640F001000E46DDF8288044F2004909
:100910004AF8140C0846114602221D46C4F200098A
:10092000FFF7DCFD284641460222FFF7D7FDF81706
:1009300007EB507020F0070224203B4609F5504198
:10094000082FB4BF20209B1A8C424FEA83020CBFB1
:1009500008210721335801FA02F21A43B8F1070FB0
:10096000325006DC4FEA880001FA00F005F1200160
:100970000CE04FEAE87008EB507020F00700A8EB9D
:100980000000800001FA00F005F124010A68DDF89A
:100990002CB010430860304639460022FFF7FAFDBC
:1009A000284641460022FFF7F5FD09F54C46B442C2
:1009B00008D04C450DD0DAF8000040F02000CAF80D
:1009C00000000CE0DAF8000040F01000CAF8000067
:1009D00005E05AF8040C40F400304AF8040CE068D2
:1009E0002BA120F40050E060E0684C4508BF0431C2
:1009F00091ED000A01EE10BAB8EEC11A80EE010ABC
:100A000020F48060E060E06820F48050E060E068FE
:100A100020F40040E060206920F44050BCEEC01A91
:100A2000B8EE412A11EE105A30EE420AB3EE001A27
:100A300020EE010A206100F074F9BCEEC00A10EE4D
:100A4000100A0F2888BF013540EA0510A16888BF49
:100A500028010843A060E068472540F00C00E060F2
:100A6000E0684C4540F02000E06008BF2625B44215
:100A700008BF2525284600F071F8284600F056F8F2
:100A8000E06840F40050E06001B0BDE8F08F00BFC6
:100A9000A037A04AA037204A01688906FCD54068E3
:100AA000C0B27047B0B582B044F2004EC4F2000E3E
:100AB0008C460EF54C4188424FF000024FF0000387
:100AC00008BF062270450EF5DE3508BF02228842B7
:100AD00008BF03232946704508BF03230EF5504481
:100AE00018BF0EF5E031A04202BF29460B220C23AD
:100AF00000930B46CDF804C0FFF7F8FE02B0B0BD7E
:100B000062B14FF0000C00BF03681B06FCD511F862
:100B10000C300CF1010C94454360F5D10168490695
:100B2000FCD5016821F0400101607047C1B200F0BE
:100B30001F00012202FA00F04EF20012CEF2000273
:100B400042EAD10121F00301086070474EF62350BC
:100B5000CEF200003021017070470000E421C0F2A5
:100B6000E00161F31F2010210170704740F2700115
:100B7000C2F20001086000BF08680028FCD170477D
:100B800010B582B004468DF8070044F20040C4F26C
:100B900000000DF107010122FFF7B2FF204602B06D
:100BA00010BD0000006800F0200070470024C4F26F
:100BB000020400F095F839A0FFF7D2FB40F2780765
:100BC00040F27C0540F2E40B40F2E80640F2EC080B
:100BD000C2F20007C2F200054FF0000AC2F2000B99
:100BE000C2F20006C2F200084FF0010919E033A07A
:100BF000FFF7B6FBC7F800A0DBF800202046052170
:100C0000FFF7DAFC326820460621FFF7D5FCD8F85A
:100C1000002020460721FFF7CFFC4FF4FA70FFF7C2
:100C2000A5FF38680128E7D128784C28E4D11FA017
:100C30002946FFF725FB687830380728D7D8DFE842
:100C400000F004070A0D10171E25CBF800A00AE0DB
:100C5000CBF800A00EE0CBF800A012E0CBF800A08B
:100C600016E0CBF80090C6F800A0C8F800A0C1E7D5
:100C7000CBF80090C6F800A0C8F80090BAE7CBF80F
:100C80000090C6F80090C8F800A0B3E7CBF8009039
:100C9000C6F80090C8F80090ACE700BF48656C6CDF
:100CA0006F204E75636C656F0D000000627566669F
:100CB0006572203A2025730D0A0000004552524FFC
:100CC00052203A20545950452066726F6D204C30A6
:100CD00020746F204C37204F4C4E5921210D0000BD
:100CE00010B582B0FFF7DCFC0120FFF755FD0024B2
:100CF000C4F20204A4F5DE304FF41641FFF7D2FE31
:100D00000A21A4F570404FF4165C00912146092297
:100D10002346CDF804C0FFF7E9FDFFF761FC02B000
:100D200010BD10B52DED028BB0EE408A18EE100A02
:100D300000F098F801EE100A18EE100AB7EE000A5B
:100D400078EE410A10F0004F4FF07F4010EE901AFD
:100D500012D0B1F13F4F24BF10EE901AB0EB410F0B
:100D600012D210EE901AB1F17C5F1CDD10EE901AD9
:100D7000B0EB410F17D314E0B1F13F4F07D910EE9C
:100D8000901AB0EB410F02D331EE401A0BE010EE97
:100D9000901AB1F17C5F06DB10EE901AB0EB410FB8
:100DA00001D331EE001A18EE100ABDEC028B11EEE1
:100DB000101A61F31E0000EE100A10BD0EF1020EB3
:100DC0002EF0030E5EF8044B244204D44FEA410295
:100DD000B2F17F4F11D84FEA4003B3F17F4F0CD8E7
:100DE0000ED14FEAD07C0CEB4C0C0CF1020CB2F1A2
:100DF0007F4F08BF4CEBD17C04E04FF0080C01E0C2
:100E00004FEAD17C0CEB4C0324FA03F404F0070402
:100E1000B4F1040C06D20EEB840CBDE810404CF08B
:100E2000010C6047DFE80CF0070802024FF00040B9
:100E3000A0F5800010BD0846420018BFD2F18072B4
:100E400088BF00F0004010BDF1EE100A4FF6FF71B0
:100E5000C0F2C03120EA010040F04070E1EE100A1B
:100E6000704700005FEA400C5FEA1C6CBCF17F0336
:100E700014D4D3F1170240F31C804FF0010C0CFA8C
:100E800002FCACF10103034020EA0300B3EB5C0277
:100E900008BF10EA0C0F88BF60447047B3F1FF3FF2
:100EA00028BF5FEA002C00F0004088BF40F07E5071
:100EB0007047BCF1FF0FB8BF704710B5FFF77EFF5A
:100EC00040DBB6BEE80E0008000000201000000065
:100ED000D4010008F80E000810000020E806000009
:100EE000F0010008000000000024F4000D000000E4
:080EF0000A00000000000000F0
:040000050800019955
:00000001FF
