:020000040800F2
:10000000780600203D02000845020008470200086B
:10001000490200084B0200084D02000800000000E1
:100020000000000000000000000000004F02000877
:100030005102000800000000530200083D050008BE
:10004000570200085702000857020008570200082C
:10005000570200085702000857020008570200081C
:10006000570200085702000857020008570200080C
:1000700057020008570200085702000857020008FC
:10008000570200085702000857020008000000004D
:1000900000000000000000000000000057020008FF
:1000A00057020008570200085702000857020008CC
:1000B00057020008570200085702000857020008BC
:1000C00057020008570200085702000857020008AC
:1000D00057020008570200085702000800000000FD
:1000E00057020008570200085702000800000000ED
:1000F000000000000000000000000000570200089F
:1001000000000000570200085702000857020008CC
:1001100000000000000000000000000000000000DF
:10012000570200085702000857020008570200084B
:10013000570200080000000000000000000000005E
:10014000000000000000000000000000570200084E
:10015000570200085702000857020008570200081B
:1001600057020008570200080000000000000000CD
:10017000000000000000000000000000000000007F
:10018000000000005702000800000000000000000E
:10019000570200085702000800F002F800F03EF88D
:1001A0000AA090E8000C82448344AAF10107DA45D2
:1001B00001D100F033F8AFF2090EBAE80F0013F0E6
:1001C000010F18BFFB1A43F001031847680800002D
:1001D00088080000103A24BF78C878C1FAD85207BE
:1001E00024BF30C830C144BF04680C6070470000B1
:1001F0000023002400250026103A28BF78C1FBD830
:10020000520728BF30C148BF0B6070471FB500F0D0
:1002100054FB00F037F81FBD10B510BD00F044F8D6
:100220001146FFF7F3FF00F009FA00F062F803B49B
:10023000FFF7F2FF03BC00F06BF8000009488047AD
:1002400009480047FEE7FEE7FEE7FEE7FEE7FEE7B8
:10025000FEE7FEE7FEE7FEE704480549054A064BD0
:1002600070470000B50500089901000878000020DB
:10027000780600207802002078020020704770473E
:100280007047000070B5064C7C44064D7D4404E088
:100290002046016808448047241DAC42F8D170BD57
:1002A000C8070000C8070000754600F02BF8AE46EE
:1002B00005006946534620F00700854618B020B572
:1002C000FFF7CAFFBDE820404FF000064FF00007DF
:1002D0004FF000084FF0000BAC46ACE8C009ACE8AA
:1002E000C009ACE8C009ACE8C00921F007018D469F
:1002F000704710B50446AFF300802046BDE81040BB
:10030000FFF795BF004870470800002070470000C5
:1003100001491820ABBEFEE72600020070B5054675
:1003200040F60000C4F20200144685420E460DD08D
:1003300040F20040C4F2020085420AD00020C4F21C
:100340000200854207D100F06BF804E000F07CF871
:1003500001E000F06FF828463146224600F002F82E
:1003600070BD000080B549004FF0030CD0F800E0EC
:100370000CFA01F32EEA03030360036802FA01F1A9
:100380001943016080BD000080B549004FF0030CA7
:10039000D0F808E00CFA01F32EEA030383608368C7
:1003A00002FA01F11943816080BD0000012A0AD0E0
:1003B000002A18BF70470122436802FA01F123EABC
:1003C0000101416070470122436802FA01F11943BB
:1003D0004160704780B549004FF0030CD0F80CE045
:1003E0000CFA01F32EEA0303C360C36802FA01F1B9
:1003F0001943C16080BD0000012A0AD0002A18BF3D
:1004000070470122436902FA01F123EA01014161C7
:1004100070470122436902FA01F1194341617047B3
:1004200043F63000C4F20200016841F001010160AE
:100430007047000043F63000C4F20200016841F04A
:10044000020101607047000043F63000C4F2020070
:10045000016841F0040101607047000043F60800A4
:10046000C4F20200D0F8F81321F00F01C0F8F8131D
:10047000D0F8F81341F00201C0F8F81350F8081C46
:1004800041F0010140F8081C50F8081C8907FBD511
:1004900050F8081C542221F0807140F8081C50F8D4
:1004A000041C21F4800140F8041C50F8041C40F89E
:1004B000041C50F8041C62F38E1140F8041C50F820
:1004C000041C082262F3050140F8041C50F8041CC7
:1004D00021F4403140F8041C50F8081C41F08071B0
:1004E00040F8081C50F8081C8901FBD4016821F071
:1004F00003010160016841F002010160016801F03F
:100500000C010829FAD1016821F0F00101600168AD
:1005100021F4E0510160016841F4805101600168FB
:1005200021F46041016040F200004BF60051C2F23C
:100530000000C0F2015101607047000040F2680005
:10054000C2F200000168002908BF70470168013944
:1005500001607047B0B544F6D3514EF21004C1F2B9
:100560006201CEF20004A0FB010120684FF0FF30D1
:10057000002500EB91102560606000F043F8A56055
:10058000206840F004002060206840F002002060F5
:10059000206840F001002060B0BD000040F268001B
:1005A000C2F20000002101604EF21800CEF20000FD
:1005B000016070474EF68850CEF20000016841F4A9
:1005C000700101604FF0006140F8801C704700002E
:1005D00080B500F01FF880BD80B5FFF7DFFF80BD5C
:1005E00080B5084600F020F880BD000010B5044634
:1005F0004BF60050C0F2015048432060FFF7AAFFBD
:10060000204610BD4EF62350CEF20000302101707E
:100610007047000080B540F27000C2F20000012176
:10062000FFF7E4FF80BD000040F26801C2F2000164
:10063000086000BF08680028FCD1704700F01EF871
:1006400040F26C0540F27004C2F20005C2F20004F0
:10065000002600BF286800F017F820464FF47A7192
:10066000FFF7BEFF28680130286028680A28204666
:1006700008BF2E60FFF7B0FFECE7000080B5FFF782
:10068000EDFE00F049F880BD2DE9F04F81B040F655
:10069000D4010022C0F60001C4F2020201EB4017AF
:1006A0004FF6FB7A40F6142507F110090024C7F62F
:1006B000FF7AC0F6000502F5806B02F500664FF088
:1006C000010802E00134082C23D0062C0DD808FACA
:1006D00004F010F0670F08D055F8241057F82420C4
:1006E0000020C4F20200FFF787FE04EA0A00032894
:1006F00006D155F8241057F824205846FFF77CFE01
:10070000042CDFD1D9F8002030460721FFF774FE12
:10071000D8E701B0BDE8F08F70B50025C4F202053E
:10072000284605210122FFF7F9FD2846062101226E
:10073000FFF7F4FD284607210122FFF7EFFD05F53D
:100740008064204606210122FFF7E8FD05F50066DA
:10075000304607210122FFF7E1FD28460921012249
:10076000FFF7DCFD284608210122FFF7D7FD2046D0
:100770000A210122FFF7D2FD284605210122FFF7B9
:10078000F1FD284605210222FFF7FEFD284605213E
:100790000022FFF70BFE284605210022FFF71AFE74
:1007A000284606210122FFF7DDFD28460621022208
:1007B000FFF7EAFD284606210022FFF7F7FD28464D
:1007C00006210022FFF706FE284607210122FFF737
:1007D000C9FD284607210222FFF7D6FD284607213A
:1007E0000022FFF7E3FD284607210022FFF7F2FD74
:1007F000204606210122FFF7B5FD204606210222F0
:10080000FFF7C2FD204606210022FFF7CFFD20465C
:1008100006210022FFF7DEFD304607210122FFF707
:10082000A1FD304607210222FFF7AEFD3046072129
:100830000022FFF7BBFD304607210022FFF7CAFD6B
:10084000284609210122FFF78DFD284609210222B1
:10085000FFF79AFD284609210022FFF7A7FD284649
:1008600009210022FFF7B6FD284608210122FFF7E3
:1008700079FD284608210222FFF786FD2846082137
:100880000022FFF793FD284608210022FFF7A2FD72
:1008900020460A210122FFF765FD20460A21022297
:1008A000FFF772FD20460A210022FFF77FFD204658
:1008B0000A210022FFF78EFD70BDF1EE100A4FF6FF
:1008C000FF71C0F2C03120EA010040F04070E1EE5B
:1008D000100A704700000000000000000000000047
:1008E0000000000000000000000000000100000007
:1008F00001000000010000000000000000000000F6
:1009000001000000010000000100000001000000E3
:1009100001000000000000000000000001000000D5
:1009200000000000000000000100000000000000C6
:1009300001000000000000000000000000000000B6
:1009400000000000010000000100000000000000A5
:100950000100000001000000000000000000000095
:100960000100000001000000000000000000000085
:100970000100000000000000010000000000000075
:100980000000000001000000000000000000000066
:100990000100000000000000010000000000000055
:1009A0000000000000000000000000000000000047
:1009B0000100000000000000000000000000000036
:1009C0000100000001000000000000000100000024
:1009D0000100000000000000000000000000000016
:1009E0000000000000000000000000000000000007
:1009F00001000000000000000000000000000000F6
:100A000000000000010000000000000000000000E5
:100A100001000000050000000600000007000000C3
:100A200006000000070000000900000008000000A8
:100A30000A000000580A000800000020080000001A
:100A4000D4010008600A00080800002070060000B9
:100A5000F00100087DFBFFFF0024F400000000000F
:040000050800019955
:00000001FF
