:020000040800F2
:100000006806002039020008410200084302000887
:1000100045020008470200084902000800000000ED
:100020000000000000000000000000004B0200087B
:100030004D020008000000004F02000851020008B5
:10004000530200085302000853020008530200083C
:10005000530200085302000853020008530200082C
:10006000530200085302000853020008530200081C
:10007000530200085302000853020008530200080C
:100080005302000853020008530200080000000059
:100090000000000000000000000000005302000803
:1000A00053020008530200085302000853020008DC
:1000B00053020008530200085302000853020008CC
:1000C00053020008530200085302000853020008BC
:1000D0005302000853020008530200080000000009
:1000E00053020008530200085302000800000000F9
:1000F00000000000000000000000000053020008A3
:1001000000000000530200085302000853020008D8
:1001100000000000000000000000000000000000DF
:10012000530200085302000853020008530200085B
:100130005302000800000000000000000000000062
:100140000000000000000000000000005302000852
:10015000530200085302000853020008530200082B
:1001600053020008530200080000000000000000D5
:10017000000000000000000000000000000000007F
:100180000000000053020008000000000000000012
:10019000530200085302000800F002F800F03CF897
:1001A0000AA090E8000C82448344AAF10107DA45D2
:1001B00001D100F031F8AFF2090EBAE80F0013F0E8
:1001C000010F18BFFB1A43F0010318473C0700005A
:1001D0005C070000103A24BF78C878C1FAD85207EB
:1001E00024BF30C830C144BF04680C6070470000B1
:1001F0000023002400250026103A28BF78C1FBD830
:10020000520728BF30C148BF0B6070471FB500F0D0
:10021000BEFA1FBD10B510BD00F031F81146FFF752
:10022000F5FF00F05FF900F04FF803B4FFF7F2FFBD
:1002300003BC00F057F80000094880470948004710
:10024000FEE7FEE7FEE7FEE7FEE7FEE7FEE7FEE786
:10025000FEE7FEE704480549054A064B70470000E3
:10026000C904000899010008680000206806002001
:10027000680200206802002070477047704775468A
:1002800000F02CF8AE4605006946534620F0070002
:10029000854618B020B5FFF7DDFFBDE820404FF0E0
:1002A00000064FF000074FF000084FF0000BAC467F
:1002B000ACE8C009ACE8C009ACE8C009ACE8C009CA
:1002C00021F007018D46704710B50446AFF300805A
:1002D0002046BDE81040FFF7A8BF00000048704767
:1002E0000800002001491820ABBEFEE726000200EE
:1002F00070470000B0FA80F14909012808BF0221C7
:10030000022808BF0321032808BF0421042808BFCE
:100310000521052808BF0621062808BF0721072850
:1003200008BF0821082808BF0921093818BF084656
:100330007047000070B5054640F60000C4F20200A8
:10034000144685420E460DD040F20040C4F2020031
:1003500085420AD00020C4F20200854207D100F095
:1003600071F804E000F082F801E000F075F828462A
:100370003146224600F002F870BD000080B5490009
:100380004FF0030CD0F800E00CFA01F32EEA03035F
:100390000360036802FA01F11943016080BD0000A7
:1003A00080B549004FF0030CD0F808E00CFA01F3D7
:1003B0002EEA03038360836802FA01F11943816026
:1003C00080BD0000012A0AD0002A18BF7047012210
:1003D000436802FA01F123EA0101416070470122FA
:1003E000436802FA01F119434160704780B5490042
:1003F0004FF0030CD0F80CE00CFA01F32EEA0303E3
:10040000C360C36802FA01F11943C16080BD0000F6
:100410000069012202FA01F108407047012A0AD05E
:10042000002A18BF70470122436902FA01F123EA4A
:100430000101416170470122436902FA01F1194348
:100440004161704743F63000C4F20200016841F098
:10045000010101607047000043F63000C4F2020061
:10046000016841F0020101607047000043F630006E
:10047000C4F20200016841F004010160704700000D
:1004800043F60000C4F20200016841F0010101607E
:10049000016841F0010101600168890704D48168A5
:1004A00021F003018160F7E781688160816811F0C4
:1004B0000C0FFBD140F2000042F20041C2F20000FA
:1004C000C0F2F401016070474EF68850CEF2000091
:1004D000016841F4700101604FF0006140F8801C38
:1004E0007047000000F022F800F080F840F60004A9
:1004F0000025C4F2020400BF00260127284600F0B0
:100500002DF820460D21FFF783FF002804BF0126A8
:100510000746F3D0002FF1D10127012E4FF000063E
:10052000ECD12846FFF7E6FE0546E5E710B5FFF7F4
:10053000A7FF40F60004C4F2020420460D21002269
:10054000FFF7F8FE20460D210022FFF717FF204697
:100550000D210122FFF74AFF10BD00002DE9F04FE9
:1005600081B040F2A8710022C0F60001C4F202027C
:1005700001EB40174FF6FB7A40F6E80507F110094A
:100580000024C7F6FF7AC0F6000502F5806B02F57D
:1005900000664FF0010802E00134082C23D0062C3D
:1005A0000DD808FA04F010F0670F08D055F82410A1
:1005B00057F824200020C4F20200FFF72FFF04EABE
:1005C0000A00032806D155F8241057F8242058466D
:1005D000FFF724FF042CDFD1D9F800203046072193
:1005E000FFF71CFFD8E701B0BDE8F08F70B500251C
:1005F000C4F20205284605210122FFF79BFE28468A
:1006000006210122FFF796FE284607210122FFF767
:1006100091FE05F58064204606210122FFF78AFE3F
:1006200005F50066304607210122FFF783FE2846C4
:1006300009210122FFF77EFE284608210122FFF74B
:1006400079FE20460A210122FFF774FE2846052183
:100650000122FFF793FE284605210222FFF7A0FEA4
:10066000284605210022FFF7ADFE2846052100227D
:10067000FFF7BCFE284606210122FFF77FFE284631
:1006800006210222FFF78CFE284606210022FFF7F2
:1006900099FE284606210022FFF7A8FE28460721DA
:1006A0000122FFF76BFE284607210222FFF778FEA2
:1006B000284607210022FFF785FE28460721002251
:1006C000FFF794FE204606210122FFF757FE204641
:1006D00006210222FFF764FE204606210022FFF7D2
:1006E00071FE204606210022FFF780FE30460721DA
:1006F0000122FFF743FE304607210222FFF750FE9A
:10070000304607210022FFF75DFE30460721002218
:10071000FFF76CFE284609210122FFF72FFE28462D
:1007200009210222FFF73CFE284609210022FFF79B
:1007300049FE284609210022FFF758FE28460821D5
:100740000122FFF71BFE284608210222FFF728FEA0
:10075000284608210022FFF735FE284608210022FE
:10076000FFF744FE20460A210122FFF707FE20463C
:100770000A210222FFF714FE20460A210022FFF779
:1007800021FE20460A210022FFF730FE70BDF1EE67
:10079000100A4FF6FF71C0F2C03120EA010040F0AC
:1007A0004070E1EE100A70470000000000000000F9
:1007B0000000000000000000000000000000000039
:1007C0000100000001000000010000000000000026
:1007D0000000000001000000010000000100000016
:1007E0000100000001000000000000000000000007
:1007F00001000000000000000000000001000000F7
:1008000000000000010000000000000000000000E7
:1008100000000000000000000100000001000000D6
:1008200000000000010000000100000000000000C6
:1008300000000000010000000100000000000000B6
:1008400000000000010000000000000001000000A6
:100850000000000000000000010000000000000097
:100860000000000001000000000000000100000086
:100870000000000000000000000000000000000078
:100880000000000001000000000000000000000067
:100890000000000001000000010000000000000056
:1008A0000100000001000000000000000000000046
:1008B0000000000000000000000000000000000038
:1008C0000000000001000000000000000000000027
:1008D0000000000000000000010000000000000017
:1008E00000000000010000000500000006000000FC
:1008F00007000000060000000700000009000000DB
:10090000080000000A00000028090008000000207C
:1009100008000000D4010008300900080800002089
:1009200060060000F00100080024F4000000000050
:040000050800019955
:00000001FF
