:020000040800F2
:100000009806002039020008410200084302000857
:1000100045020008470200084902000800000000ED
:100020000000000000000000000000004B0200087B
:100030004D020008000000004F0200080D0B0008F0
:10004000530200085302000853020008530200083C
:10005000530200085302000853020008530200082C
:10006000530200085302000853020008530200081C
:10007000530200085302000853020008530200080C
:100080005302000853020008530200080000000059
:10009000000000000000000000000000F502000861
:1000A00053020008530200085302000853020008DC
:1000B00053020008530200085302000853020008CC
:1000C00053020008530200085302000853020008BC
:1000D0005302000853020008530200080000000009
:1000E00053020008530200085302000800000000F9
:1000F00000000000000000000000000053020008A3
:1001000000000000530200085302000853020008D8
:1001100000000000000000000000000000000000DF
:10012000530200085302000853020008530200085B
:100130005302000800000000000000000000000062
:100140000000000000000000000000005302000852
:10015000530200085302000853020008530200082B
:1001600053020008530200080000000000000000D5
:10017000000000000000000000000000000000007F
:100180000000000053020008000000000000000012
:10019000530200085302000800F002F800F03CF897
:1001A0000AA090E8000C82448344AAF10107DA45D2
:1001B00001D100F031F8AFF2090EBAE80F0013F0E8
:1001C000010F18BFFB1A43F001031847BC0E0000D3
:1001D000DC0E0000103A24BF78C878C1FAD8520764
:1001E00024BF30C830C144BF04680C6070470000B1
:1001F0000023002400250026103A28BF78C1FBD830
:10020000520728BF30C148BF0B6070471FB500F0D0
:1002100029FF1FBD10B510BD00F031F81146FFF7E2
:10022000F5FF00F06DFD00F04FF803B4FFF7F2FFAB
:1002300003BC00F057F80000094880470948004710
:10024000FEE7FEE7FEE7FEE7FEE7FEE7FEE7FEE786
:10025000FEE7FEE704480549054A064B70470000E3
:10026000650B0008990100089800002098060020FE
:10027000980200209802002070477047704775462A
:1002800000F02CF8AE4605006946534620F0070002
:10029000854618B020B5FFF7DDFFBDE820404FF0E0
:1002A00000064FF000074FF000084FF0000BAC467F
:1002B000ACE8C009ACE8C009ACE8C009ACE8C009CA
:1002C00021F007018D46704710B50446AFF300805A
:1002D0002046BDE81040FFF7A8BF00000048704767
:1002E0000800002001491820ABBEFEE726000200EE
:1002F0007047000080B5052000F0F8FC002808BF1A
:1003000080BD40F26800C2F20000012101600520BA
:1003100000F0E0FC80BD000080B543F60042C4F26E
:10032000010201211368814019430428116001D89A
:10033000063007E00A2801D2172003E00F2888BF03
:1003400080BD282040B200F0A5FC80BD2DE9F04121
:100350000D4643F64401C4F2020198460B6843F689
:10036000084CC4F2010C43F480430B600C21AC0830
:10037000ACF5806601EA850E6FF00F0156F8247027
:1003800001FA0EF107EA0103A0F18041A1F502375D
:1003900007F500614FEAB121072946F8243000F241
:1003A0005B80DFE801F0041321384959595407F5FF
:1003B00080614FEAB1210023062946F824304BD84A
:1003C000DFE801F00412293A4A4A4500012101FA06
:1003D0000EF34FEAB721052946F824303CD8DFE870
:1003E00001F0031A2B3B3B3641F600430221C4F2D5
:1003F000020301FA0EF1984246F8241027D041F288
:100400000001C4F20201884216D040F60041C4F255
:100410000201884220D141F600430321C4F20203C5
:1004200001FA0EF1984246F8241010D041F2000172
:10043000C4F2020188420FD141F600430421C4F204
:10044000020301FA0EF1984246F8241004D1072065
:1004500000FA0EF046F82400022A0CD0012A16D029
:10046000E2B943F60C41C4F2010101200A68A84038
:100470001043086012E043F60C41C4F20101012070
:100480000A68A84002430A60DCF8001003E001207B
:10049000DCF80010A8400843CCF800002846FFF71D
:1004A0003BFF042D01D8A81D07E00A2D01D217201B
:1004B00003E00020102D38BF282045B228464146D1
:1004C00000F0F8FB284600F0E5FBBDE8F0810000F5
:1004D00070B5054640F60000C4F20200144685429D
:1004E0000E460DD040F20040C4F2020085420AD010
:1004F0000020C4F20200854207D100F079FA04E03E
:1005000000F08AFA01E000F07DFA284631462246E2
:1005100000F002F870BD000080B549004FF0030CF8
:10052000D0F800E00CFA01F32EEA0303036003683D
:1005300002FA01F11943016080BD000080B5490055
:100540004FF0030CD0F808E00CFA01F32EEA030395
:100550008360836802FA01F11943816080BD000065
:10056000012A0AD0002A18BF70470122436802FA04
:1005700001F123EA0101416070470122436802FA58
:1005800001F119434160704780B549004FF0030CF9
:10059000D0F80CE00CFA01F32EEA0303C360C36841
:1005A00002FA01F11943C16080BD00002DE9F04756
:1005B00040F2244940F2200A40F2440815460E4613
:1005C0000746C4F20209C4F2020AC4F20108C0E9F3
:1005D000001200F04DF9D7E90247304629460222C1
:1005E000FFF776FF304629460322FFF7A7FF304684
:1005F00029460022FFF7B4FF304629460022FFF7C4
:10060000C3FFA9000F22DAF8000002FA01F39843B1
:10061000CAF8000045F3407001EB507020F007006D
:10062000C0EB8500DAF8046082409643CAF80460A3
:10063000DAF8006426EA0303CAF80034D9F8003077
:10064000934340F6FF32C4F200029442C9F80030EE
:1006500011DD43F6FF73C4F201039C4270DC40F6E7
:100660000043C4F200039C4243D00023C4F20103C0
:100670009C4203D092E0B4F1804F2ED1072D0BD8CD
:100680000123DAF800608B401E43CAF80060DAF8F4
:1006900000643343CAF8003425F00703082B0BD15C
:1006A0000123DAF8046083401E43CAF80460D9F8D5
:1006B00000603343C9F8003094420EDD44F6000276
:1006C000C4F20102944247D044F20002C4F2010293
:1006D000944241D040F6004207E040F20042C4F2AA
:1006E0000002944205D040F60002C4F20002944297
:1006F00054D1072D0BD80222DAF800308A40134378
:10070000CAF80030DAF800341A43CAF8002425F099
:100710000702082A0BD10222DAF804308240134380
:10072000CAF80430D9F800301A43C9F8002044F65A
:10073000000344F40062C4F201039A420CD02DE09D
:1007400044F20002C4F20102944205D044F60002D1
:10075000C4F20102944221D1072D0DD80322DAF808
:10076000003002FA01F143EA0102CAF80020DAF887
:1007700000241143CAF8001425F0070108290DD1FF
:100780000321DAF8042001FA00F042EA0001CAF875
:100790000410D9F800100843C9F8000020461421BD
:1007A000A8F1440500F0ECF9206800202060E06A20
:1007B000791E03294DD84008DFE801F002122233E8
:1007C000A16904F1340221F07001A161A16941F035
:1007D0006001A161A16941F00801A161012130E03E
:1007E000A16904F1380221F4E041A161A16941F459
:1007F000C041A161A16941F40061A161102120E023
:10080000E16904F13C0221F07001E161E16941F02C
:100810006001E161E16941F00801E1614FF480713B
:100820000FE0E16904F1400221F4E041E161E16996
:1008300041F4C041E161E16941F40061E1614FF4DB
:1008400080511060206A20F002002062206A084374
:100850002062AC4205D1D8F8000040F40040C8F84E
:100860000000206840F001002060BDE8F087000033
:10087000D0E9002140F60003C4F202039A4219D0E5
:1008800040F20043C4F202039A4220D00023C4F293
:1008900002039A423CD10F293AD8DFE801F0083A26
:1008A0003939390828393D444B39393939084FF03D
:1008B00080414CE00639032988BF7047DFE801F02A
:1008C000171C022140F20041C4F200014FE003393D
:1008D00007291DD8DFE801F01D0B10353F0404493E
:1008E00040F20041C4F2000101F580613FE040F2B6
:1008F0000041C4F200012AE040F20041C4F20001CC
:100900002FE040F20041C4F200010422C0E90212CB
:1009100070474FF0804124E040F20041C4F20001F2
:1009200001F57C4113E040F20041C4F2000101F501
:100930007C4116E040F20041C4F2000101F57C4127
:1009400015E040F20041C4F2000101F5806101228E
:10095000C0E90212704740F20041C4F2000101F503
:1009600080610222C0E9021270474FF080410322E9
:10097000C0E902127047000043F6080CD0E90212E9
:10098000C4F2020C886ADCF8003003F00303022B87
:1009900004D144F62003C0F2010307E0DCF8003084
:1009A0009B074FF0000308BF4FF47A53013A032A24
:1009B00088BF70470130B3FBF0F001EE100AB8EECB
:1009C000411A21EE000ABCEEC00A10EE100ADFE860
:1009D00002F0020B05083431086070473C310860B2
:1009E0007047403108607047383108607047000038
:1009F00043F63000C4F20200016841F001010160D9
:100A00007047000043F63000C4F20200016841F074
:100A1000020101607047000043F63000C4F202009A
:100A2000016841F0040101607047000043F60800CE
:100A3000C4F20200D0F8F81321F00F01C0F8F81347
:100A4000D0F8F81341F00201C0F8F81350F8081C70
:100A500041F0010140F8081C50F8081C8907FBD53B
:100A600050F8081C542221F0807140F8081C50F8FE
:100A7000041C21F4800140F8041C50F8041C40F8C8
:100A8000041C50F8041C62F38E1140F8041C50F84A
:100A9000041C082262F3050140F8041C50F8041CF1
:100AA00021F4403140F8041C50F8081C41F08071DA
:100AB00040F8081C50F8081C8901FBD4016821F09B
:100AC00003010160016841F002010160016801F069
:100AD0000C010829FAD1016821F0F00101600168D8
:100AE00021F4E0510160016841F480510160016826
:100AF00021F46041016040F200004BF60051C2F267
:100B00000000C0F2015101607047000040F26C002B
:100B1000C2F200000168002908BF7047016801396E
:100B20000160704780B54EF21001CEF2000140F630
:100B300041230A6858434FF0FF33002203EB401073
:100B40000A6048608A60086840F00400086008682D
:100B500040F002000860086840F00100086000F002
:100B6000B1F880BD4EF68850CEF20000016841F425
:100B7000700101604FF0006140F8801C7047000078
:100B800010B5044640F6FF30C4F20000844219DD7F
:100B900043F6FF70C4F2010084422BDC40F60040B3
:100BA000C4F2000084423AD00020C4F20100844222
:100BB00058D143F64000C4F20200426842F00102FC
:100BC00042604FE0B4F1804F32D040F20040C4F2B6
:100BD000000084423ED040F60000C4F2000084428F
:100BE00040D143F64000C4F20200026842F0040221
:100BF000026037E044F20000C4F20100844220D0D9
:100C000044F60000C4F2010084422BD143F64000B8
:100C1000C4F20200426842F48022426022E043F6BD
:100C20004000C4F20200026842F00802026019E0CB
:100C300043F64000C4F20200026842F00102026082
:100C400010E043F64000C4F20200426842F48032F1
:100C5000426007E043F64000C4F20200026842F03E
:100C600002020260204600F009F8206820F010001F
:100C70002060206840F00100206010BD01EB810180
:100C800042F2CF02490082624FF0FF3212FA81F144
:100C9000C1627047C1B200F01F00012202FA00F0E9
:100CA0004EF20012CEF2000242EAD10121F003011D
:100CB00008607047E422C0F2E002090162F31F20DD
:100CC000017070474EF62350CEF2000030210170C3
:100CD0007047000043F61442C4F201020121136878
:100CE00001FA00F0184310607047000043F6144109
:100CF000C4F20101096821FA00F000F00100704718
:100D000000F032F89FED160B40F2680740F27006D3
:100D100040F28408C2F20007C2F2000655EC104B04
:100D2000C2F200084FF0000938680128FCD1306891
:100D300000F087F822462B4600F096F800F050F8B5
:100D400000EE100A4046FFF717FE30680130C11E62
:100D500018BF01463160C7F80090E5E700BF00BF4B
:100D6000000000000000E03F70B5FFF75FFE0120CB
:100D7000FFF7D8FE40F20044C4F2020420460521E9
:100D800000220023FFF7E2FA40F27405C2F20005E8
:100D9000A4F5806128460622FFF708FC40F284068D
:100DA000C2F20006304621460322FFF7FFFBA4F5FE
:100DB00000304FF47A71FFF7E3FE9FED080A2846F2
:100DC000FFF7DAFD4FF080400121FFF7D9FEB6EEC4
:100DD000000A3046FFF7D0FD70BD00BF0000FA43A7
:100DE00021F0004201F00043A2F16052B2F5801FF1
:100DF00028BFD2F17F6C0BD95FEA001C43EAC20224
:100E000042EB507018BF704728BF20F001007047B8
:100E1000B2F5801FBCBF184670474FEA410C1CF565
:100E2000001F02D2084600F02AB970B500F0C6F8DB
:100E300000000089FFF7F6BF4FF00040A0F58000EA
:100E40007047B0FA80F310FA03F10AD0C3F11D0322
:100E500003F580634FEA03524FEA415002EBD12180
:100E600070474FF00000704770B5DFF848C11CEACA
:100E7000111E1EBF1CEA13159EEA0C0F95EA0C0FFB
:100E800000F06F8081EA03044EEAD47EAE4421EA8A
:100E90004C1123EA4C1341F4801143F48013AEF15A
:100EA0007F7EA1FB024CA0FB0365361955EB0C05B8
:100EB000A1FB034C4CF10003A0FB021C16EB0C063B
:100EC000654153F10003094218BF46F0010613F4CF
:100ED000007F0BD14FEA03314FEA053041EA15514B
:100EE00040EA165034036FF003020AE04FEAC321D0
:100EF0004FEAC52041EA555140EA5650F4026FF0DE
:100F0000020202EB2E4201EB025585EACE710AD0B5
:100F10005FEA440C18BF24F0004450F1000041F196
:100F2000000120EAD47040F2FE7C624500D270BD20
:100F3000A84214BF4FF080444FF04044002E08BF39
:100F40000024BEF1806FA8BFA1F1C041BDE8704090
:100F500080F2828001F1C04101F000414FF00000B9
:100F600070470CEA13159EEA0C0F18BF95EA0C0F98
:100F700006D081EA030E4FF000000EF0004170BD74
:100F800000F01CF88900013E00F007B800F009B835
:100F90004FEA430C5FEA5C5C08D081EA030100F091
:100FA0005BB84FEA410C5FEA5C5CF6D102494FF056
:100FB000000070470000FF070000F87F0EF1020EEE
:100FC0002EF0030E5EF8046B364205D4012A43EB83
:100FD000030515F5001F12D8012841EB010C1CF583
:100FE000001F0CD80ED14FEAD17C0CEB4C0C0CF14D
:100FF000020C15F5001F08BF4CEBD37C04E04FF04A
:10100000080C01E04FEAD37C0CEB4C0526FA05F600
:1010100006F00706B6F1040C06D20EEB860CBDE80E
:1010200070404CF0010C6047DFE80CF0090B020245
:101030004FF00041A1F500214FF0000070BD1946AE
:101040001046012851EB010418BFD4F5001484BFE9
:10105000002001F0004170BD0808A0F500114FEA22
:1010600031017047F1EE100A4FF6FF71C0F2C03146
:1010700020EA010040F04070E1EE100A7047FF21C5
:1010800041EAD050C0057047A810000800000020B9
:1010900008000000D4010008B0100008080000207B
:1010A00090060000F00100080024F4000000000099
:040000050800019955
:00000001FF
