:020000040800F2
:1000000018070020490200085102000853020008A6
:1000100055020008570200085902000800000000BD
:100020000000000000000000000000005B0200086B
:100030005D020008000000005F0200085113000884
:1000400063020008630200086302000863020008FC
:1000500063020008630200086302000863020008EC
:1000600063020008630200086302000863020008DC
:1000700063020008630200086302000863020008CC
:100080006302000863020008050600080000000083
:1000900000000000000000000000000063020008F3
:1000A000630200086302000863020008630200089C
:1000B0006302000863020008BD1300086302000821
:1000C000630200086302000863020008630200087C
:1000D00063020008630200085517000800000000D2
:1000E0006D090008630200086302000800000000B8
:1000F0000000000000000000000000006302000893
:1001000000000000630200086302000863020008A8
:1001100000000000000000000000000000000000DF
:10012000630200086302000863020008630200081B
:100130006302000800000000000000000000000052
:100140000000000000000000000000006302000842
:1001500063020008630200086302000863020008EB
:1001600063020008630200080000000000000000B5
:10017000000000000000000000000000000000007F
:100180000000000063020008000000000000000002
:10019000630200086302000800F002F800F044F86F
:1001A0000AA090E8000C82448344AAF10107DA45D2
:1001B00001D100F039F8AFF2090EBAE80F0013F0E0
:1001C000010F18BFFB1A43F001031847641D00001C
:1001D000841D0000103A24BF78C878C1FAD85207AD
:1001E00024BF30C830C144BF04680C6070470000B1
:1001F0000023002400250026103A28BF78C1FBD830
:10020000520728BF30C148BF0B607047642900F017
:10021000A580732900F08981002070471FB501F087
:100220004AFE1FBD10B510BD00F0B2F91146FFF730
:10023000F5FF01F0DFFC00F0D0F903B4FFF7F2FFA7
:1002400003BC00F0D7F9000009488047094800477F
:10025000FEE7FEE7FEE7FEE7FEE7FEE7FEE7FEE776
:10026000FEE7FEE704480549054A064B70470000D3
:10027000A1130008990100081801002018070020A8
:1002800018030020180300200FB4044910B503AA76
:10029000029800F04FF910BC5DF814FB90000020AC
:1002A0002DE9F0410E460446002020622046E16818
:1002B000884730B3252805D0D4E901219047206A2A
:1002C000401CF2E7E168204600278847050018D067
:1002D000A5F14100192802D820354FF400673246B5
:1002E000294620462760FFF791FF40B1012804D03E
:1002F000F61D26F007060836D8E7361DD6E728464D
:10030000DAE7206ABDE8F08170B50C460546012A9F
:1003100005D02878800600D5EA69002302E0012391
:1003200005E05B1C934202D2E05C0028F9D1A86989
:10033000E618C01AA861286A184428622846AFF354
:10034000008004E0D5E9012114F8010B9047B44284
:10035000F8D32846AFF3008070BD00002DE9F041CE
:100360000646002410687529314616A510D0AFF353
:100370000080002802DA404213A507E031688A07AE
:1003800001D512A502E0490704D511A5012401E019
:10039000AFF3008000210A2206F1240709E0B0FB38
:1003A000F2FCB0FBF2F302FB1C003030785418462C
:1003B000491C0028F3D123462A463046BDE8F041C7
:1003C00000F048B8000000002D0000002B000000E5
:1003D0002000000010B5044603E001F0D7FB401CEC
:1003E00009D014F8010B05490028F6D1BDE81040EA
:1003F0000A2001F0CBBB4FF0FF3010BD9000002071
:100400004FF0000200B5134694469646203922BFAD
:10041000A0E80C50A0E80C50B1F12001BFF4F7AFF8
:10042000090728BFA0E80C5048BF0CC05DF804EBDA
:10043000890028BF40F8042B08BF704748BF20F848
:10044000022B11F0804F18BF00F8012B7047704746
:10045000704770472DE9F0470D469946924604468D
:1004600000F124080168880604D5E06921F0100134
:10047000216000E00120A84201DD471B00E00027C9
:10048000A1697A1902EB0900081AA0612078C00658
:1004900002D42046AFF30080002608E0D4E9012111
:1004A0001AF806009047206A401C761C20624E45D0
:1004B000F4DB2078C0060AD52046AFF3008006E0C2
:1004C000D4E9012130209047206A401C2062381E68
:1004D000A7F10107F4DC07E0D4E9012118F80500D1
:1004E0009047206A401C2062281EA5F10105F3DC1C
:1004F0002046AFF300802078000602D50220BDE838
:10050000F0870120FBE710B5436913B1AFF300801A
:1005100001E0FFF7F9FE012010BD127800F124017F
:100520000A7000224A700122EDE711684FF0FF3295
:10053000E9E70000074B70B50D467B4400F011F869
:100540000446284600F020F810B14FF0FF3070BD8F
:10055000204670BD4F16000001694A1C02610878F0
:10056000704700B58FB0CDE90131002105910549F3
:100570007944CDE9031011466846FFF791FE0FB0AC
:1005800000BD0000E5FFFFFF007B00F0800070472A
:10059000754600F02BF8AE4605006946534620F03C
:1005A0000700854618B020B5FFF75CFEBDE8204087
:1005B0004FF000064FF000074FF000084FF0000B1F
:1005C000AC46ACE8C009ACE8C009ACE8C009ACE88E
:1005D000C00921F007018D46704710B50446AFF3FE
:1005E00000802046BDE81040FFF727BE0048704756
:1005F0001800002001491820ABBEFEE726000200CB
:100600007047000010B501F0DBFA002818BF01F0B8
:1006100099FA01F0CDFA002808BF10BD42F240005F
:10062000C4F20100006840F28004C108C2F2000474
:100630007C29206007D840F204109FED0A0AC2F21C
:10064000000000F03FFD2068B0F57A7F07D340F24C
:1006500004109FED050AC2F2000000F033FD01F026
:1006600067FA10BD0000C84200000000F0B581B07C
:1006700042F20807C4F201070E463968054621F028
:10068000020139603968144641F4806038602846B8
:10069000314600F045FF2868314620F0010028600F
:1006A000284600F0BBFF6868002120F070006860F9
:1006B0006868C4F2010140F040006860A8698D429A
:1006C00020F07000A861A86940F06000A861286A65
:1006D00040F001002862E86A4FEA50006863286829
:1006E00040F001002860386820F47020386011D094
:1006F000B5F1804F11D040F60040C4F200008542B1
:100700000ED040F60000C4F2000085420DD14FF437
:10071000102007E04FF4803004E04FF4403001E057
:100720004FF43020396808433860386820F44011AD
:10073000601E0228396004D83968013041EA00504F
:10074000386001B0F0BD00002DE9F04142F2040430
:1007500090460E460746C4F2010400F0C7F805466D
:1007600038463146032200F0F3F93846314600227C
:1007700000F04AFA43F64400C4F202000168092D71
:1007800041F480710160D4F8000320F44030C4F8D3
:100790000003D4F8000340F48030C4F8000320685C
:1007A00020F04070206008DC05EB45000421E26881
:1007B00001FA00F01043E06014E046F26760C6F210
:1007C000666055FB00F0811001EBD07000EB8000FB
:1007D000A5EB400000EB40000421A26801FA00F004
:1007E0001043A060606805F01F0120F00200606007
:1007F000206840F480702060A06A20F47000A0623D
:10080000606B20F440106063606B20F01F00606339
:10081000606B08436063206820F0800020602068DF
:1008200040F08000206001F073F901F041F9B8F167
:10083000010F18BFBDE8F08140F60040C4F200008F
:1008400064210122FFF712FFBDE8F081B0B542F24A
:100850003805C4F201052B6840F2000C23F4401364
:100860002B60CFF6F07CD5F800E00CEB005343EAA8
:100870000E0301282B60B8BFB0BD04390F234FF021
:100880001F0C00BF2A680CFA03F4A2432A6051F837
:10089000042F2C689A4022430138A3F105032A60F3
:1008A000F0D1B0BD42F20800C4F20100016841F08D
:1008B00001010160016841F480010160704700009E
:1008C00042F20401C4F201014A6838B122F0020088
:1008D0004860086840F480700860704742F0020089
:1008E0004860086820F480700860704740F6000295
:1008F000C4F20202904214D040F20042C4F202025A
:10090000904214D00022C4F20202904218BF7047F5
:10091000082905D2C8B2F32222FA00F0C00710D18C
:10092000FEE7062902D201F10A007047FEE700291E
:1009300004BF08207047012904BF0920704700BF89
:10094000FEE702A050F82100704700BF0000000041
:100950000100000000000000000000000400000092
:1009600005000000060000000700000080B50D2013
:1009700001F036F9002808BF80BD40F27800C2F2CD
:100980000000016801318A1E18BF0A4602600D206E
:1009900001F0E6F880BD000080B543F60042C4F2E5
:1009A000010201211368814019430428116001D814
:1009B000063007E00A2801D2172003E00F2888BF7D
:1009C00080BD282040B201F053F880BD2DE9F041F0
:1009D0000D4643F64401C4F2020198460B6843F603
:1009E000084CC4F2010C43F480430B600C21AC08AA
:1009F000ACF5806601EA850E6FF00F0156F82470A1
:100A000001FA0EF107EA0103A0F18041A1F50237D6
:100A100007F500614FEAB121072946F8243000F2BA
:100A20005B80DFE801F0041321384959595407F578
:100A300080614FEAB1210023062946F824304BD8C3
:100A4000DFE801F00412293A4A4A4500012101FA7F
:100A50000EF34FEAB721052946F824303CD8DFE8E9
:100A600001F0031A2B3B3B3641F600430221C4F24E
:100A7000020301FA0EF1984246F8241027D041F201
:100A80000001C4F20201884216D040F60041C4F2CF
:100A90000201884220D141F600430321C4F202033F
:100AA00001FA0EF1984246F8241010D041F20001EC
:100AB000C4F2020188420FD141F600430421C4F27E
:100AC000020301FA0EF1984246F8241004D10720DF
:100AD00000FA0EF046F82400022A0CD0012A16D0A3
:100AE000E2B943F60C41C4F2010101200A68A840B2
:100AF0001043086012E043F60C41C4F201010120EA
:100B00000A68A84002430A60DCF8001003E00120F4
:100B1000DCF80010A8400843CCF800002846FFF796
:100B20003BFF042D01D8A81D07E00A2D01D2172094
:100B300003E00020102D38BF282045B2284641464A
:100B400000F0CEFF284600F093FFBDE8F0810000E2
:100B500070B5054640F60000C4F202001446854216
:100B60000E460DD040F20040C4F2020085420AD089
:100B70000020C4F20200854207D100F0DBFA04E055
:100B800000F0ECFA01E000F0DFFA28463146224698
:100B900000F002F870BD000080B549004FF0030C72
:100BA000D0F800E00CFA01F32EEA030303600368B7
:100BB00002FA01F11943016080BD000080B54900CF
:100BC0004FF0030CD0F808E00CFA01F32EEA03030F
:100BD0008360836802FA01F11943816080BD0000DF
:100BE000012A0AD0002A18BF70470122436802FA7E
:100BF00001F123EA0101416070470122436802FAD2
:100C000001F119434160704780B549004FF0030C72
:100C1000D0F80CE00CFA01F32EEA0303C360C368BA
:100C200002FA01F11943C16080BD0000012A0AD017
:100C3000002A18BF70470122436902FA01F123EA32
:100C40000101416170470122436902FA01F1194330
:100C5000416170472DE9F04740F2244940F2200AF3
:100C600040F2440815460E460746C4F20209C4F293
:100C7000020AC4F20108C0E9001200F053F9D7E9F2
:100C80000247304629460222FFF762FF30462946D6
:100C90000222FFF793FF304629460022FFF7A0FF0C
:100CA000304629460022FFF7AFFFA9000F22DAF8ED
:100CB000000002FA01F39843CAF8000045F34070BF
:100CC00001EB507020F00700C0EB8500DAF80460FB
:100CD00082409643CAF80460DAF8006426EA030307
:100CE000CAF80034D9F80030934340F6FF32C4F21A
:100CF00000029442C9F8003011DD43F6FF73C4F2DC
:100D000001039C4270DC40F60043C4F200039C42A5
:100D100043D00023C4F201039C4203D092E0B4F11B
:100D2000804F2ED1072D0BD80123DAF800608B40BD
:100D30001E43CAF80060DAF800643343CAF800348E
:100D400025F00703082B0BD10123DAF80460834058
:100D50001E43CAF80460D9F800603343C9F8003074
:100D600094420EDD44F60002C4F20102944247D0E0
:100D700044F20002C4F20102944241D040F6004223
:100D800007E040F20042C4F20002944205D040F66F
:100D90000002C4F20002944254D1072D0BD8022263
:100DA000DAF800308A401343CAF80030DAF8003429
:100DB0001A43CAF8002425F00702082A0BD10222A0
:100DC000DAF8043082401343CAF80430D9F800300E
:100DD0001A43C9F8002044F6000344F40062C4F248
:100DE00001039A420CD02DE044F20002C4F2010249
:100DF000944205D044F60002C4F20102944221D18B
:100E0000072D0DD80322DAF8003002FA01F143EA87
:100E10000102CAF80020DAF800241143CAF80014CD
:100E200025F0070108290DD10321DAF8042001FA81
:100E300000F042EA0001CAF80410D9F80010084393
:100E4000C9F8000020460121A8F1440500F004FC87
:100E5000206800202060E06A791E03294DD84008F0
:100E6000DFE801F002122233A16904F1340221F01B
:100E70007001A161A16941F06001A161A16941F026
:100E80000801A161012130E0A16904F1380221F4D7
:100E9000E041A161A16941F4C041A161A16941F4AE
:100EA0000061A161102120E0E16904F13C0221F020
:100EB0007001E161E16941F06001E161E16941F0E6
:100EC0000801E1614FF480710FE0E16904F1400233
:100ED00021F4E041E161E16941F4C041E161E1698E
:100EE00041F40061E1614FF480511060206A20F00C
:100EF00002002062206A08432062AC4205D1D8F883
:100F0000000040F40040C8F80000206840F00100F4
:100F10002060BDE8F087000080B5806800F08AFBA3
:100F200080BD0000D0E9002140F60003C4F20203B6
:100F30009A4219D040F20043C4F202039A4220D0F0
:100F40000023C4F202039A423BD10F2939D8DFE8CB
:100F500001F0082139383808243840474E383838ED
:100F600038084FF080411CE00639032988BF7047DC
:100F7000DFE801F0131B022040F20041C4F200013F
:100F800060E0033907291CD8DFE801F004070F38B7
:100F90003F49505A4FF080413DE040F20041C4F2D9
:100FA00000010122C0E90212704740F20041C4F280
:100FB000000130E040F20041C4F200010422C0E927
:100FC0000212704740F20041C4F2000101F50061D5
:100FD00038E040F20041C4F2000101F57C41E0E755
:100FE00040F20041C4F2000101F57C4113E040F2FF
:100FF0000041C4F2000101F57C4123E040F20041D0
:10100000C4F2000101F58061CBE740F20041C4F277
:10101000000101F580610222C0E90212704740F22E
:101020000041C4F2000101F580610BE040F2004193
:10103000C4F2000101F580610422C0E90212704788
:101040004FF080410322C0E90212704743F6080CBA
:10105000D0E90212C4F2020C886ADCF8003003F016
:101060000303022B04D144F62003C0F2010307E07E
:10107000DCF800309B074FF0000308BF4FF47A53B1
:10108000013A032A88BF70470130B3FBF0F001EE4C
:10109000100AB8EE411A21EE000ABCEEC00A10EEAA
:1010A000100ADFE802F0020B0508343108607047CF
:1010B0003C31086070474031086070473831086043
:1010C0007047000043F6080CD0E90212C4F2020C8B
:1010D000886ADCF8003003F00303022B01D15423AB
:1010E00007E0DCF8003003F00303B3FA83F35B0995
:1010F0001B01013A032A88BF70470130B3FBF0F0AF
:1011000001EE100AB8EE411A21EE000ABCEEC00A48
:1011100010EE100ADFE802F0020B05083431086017
:1011200070473C3108607047403108607047383183
:101130000860704743F63000C4F20200016841F0D5
:10114000010101607047000043F63000C4F2020064
:10115000016841F0020101607047000043F6300071
:10116000C4F20200016841F0040101607047000010
:1011700043F60800C4F20200D0F8F81321F00F0182
:10118000C0F8F813D0F8F81341F00201C0F8F813D2
:1011900050F8081C41F0010140F8081C50F8081CE8
:1011A0008907FBD550F8081C542221F0807140F8C3
:1011B000081C50F8041C21F4800140F8041C50F86D
:1011C000041C40F8041C50F8041C62F38E1140F813
:1011D000041C50F8041C082262F3050140F8041CAA
:1011E00050F8041C21F4403140F8041C50F8081C4D
:1011F00041F0807140F8081C50F8081C8901FBD4AC
:10120000016821F003010160016841F00201016001
:10121000016801F00C010829FAD1016821F0F00100
:101220000160016821F4E0510160016841F48051DE
:101230000160016821F46041016040F200004BF65A
:101240000051C2F20000C0F201510160704700007D
:1012500070B540F29804C2F200042FA02146FFF7B7
:1012600013F840F29405C2F200052878012821D134
:10127000207846281ED16078302808D0312814D133
:101280000020C4F2020009210022002605E000200F
:10129000C4F20200092101220126FFF7C7FC40F237
:1012A0007C00C2F20000067002E01FA0FFF792F877
:1012B000002020802878012825D12078422822D1BA
:1012C000607830280ED0312818D140F28400C2F264
:1012D00000000121017040F28800C2F200000021EC
:1012E00001600EE040F28400C2F2000000210170B3
:1012F00040F28800C2F20000016002E00AA0FFF79D
:1013000069F80020208040F204109FED100AC2F21C
:101310000000FFF79BFE70BD627566666572203A3D
:101320002025730D0A0000004552524F52203A20EA
:101330005459504520552C442C4C2C522C462C42B0
:101340002C53204F4C4E5921210D00000000C84263
:1013500040F28C00C2F200000168002908BF70470B
:10136000016801390160704780B54EF21001CEF27C
:10137000000154230A685843002201380A6048607B
:101380008A60086840F004000860086840F00200C5
:101390000860086840F00100086000F0A9FB80BD0B
:1013A0004EF68850CEF20000016841F470010160F1
:1013B0004FF0006140F8801C704700002DE9F043B9
:1013C00081B00025C4F20205A5F5FC34204600F0EA
:1013D000FFFB00284BD040F28406C2F200063078B2
:1013E00040F2780840F28807C2F20008C2F2000713
:1013F000B8B9D8F80000A0B93868411C396020B9E4
:10140000284605210122FFF711FC3868022808D17F
:101410002846052100224FF00009FFF707FCC7F816
:1014200000903078012816D1D8F8000098B93868B3
:1014300001300428386004D1284605210122FFF735
:10144000F5FB3868082806D1284605210022002629
:10145000FFF7ECFB3E60D8F80000012804D12846D5
:1014600005210122FFF7E2FB204600F075FB01B0E9
:10147000BDE8F083C16841F00101C1607047000020
:1014800010B5044600F04CF82046FFF7F3FF40F695
:10149000FF30C4F20000844212DD43F6FF70C4F254
:1014A000010084421DDC40F60040C4F2000084428A
:1014B00025D00020C4F20100844226D1192427E05F
:1014C000B4F1804F1DD040F20040C4F200008442CD
:1014D0001DD040F60000C4F20000844215D11E2445
:1014E00016E044F20000C4F2010084420BD044F63E
:1014F0000000C4F20100844207D11A2408E032241B
:1015000006E01C2404E0182402E0002400E01D246E
:10151000204600F0BDFA204600F0F2FA10BD0000AF
:1015200010B5044640F6FF30C4F20000844219DDD5
:1015300043F6FF70C4F2010084422BDC40F6004009
:10154000C4F2000084423AD00020C4F20100844278
:1015500058D143F64000C4F20200426842F0010252
:1015600042604FE0B4F1804F32D040F20040C4F20C
:10157000000084423ED040F60000C4F200008442E5
:1015800040D143F64000C4F20200026842F0040277
:10159000026037E044F20000C4F20100844220D02F
:1015A00044F60000C4F2010084422BD143F640000F
:1015B000C4F20200426842F48022426022E043F614
:1015C0004000C4F20200026842F00802026019E022
:1015D00043F64000C4F20200026842F001020260D9
:1015E00010E043F64000C4F20200426842F4803248
:1015F000426007E043F64000C4F20200026842F095
:1016000002020260204600F009F8206820F0100075
:101610002060206840F00100206010BD42F2CF023F
:1016200001EB810182624FF0FF3202EB4101C162A6
:1016300070470000B0F1804F05D04FF0FF3212FA32
:1016400081F1C16204E02C220139C4F20002116070
:10165000532181627047000010B5044640F6FF3008
:10166000C4F20000844219DD43F6FF70C4F20100A9
:1016700084422BDC40F60040C4F2000084423AD0A1
:101680000020C4F20100844258D143F64000C4F265
:101690000200426842F0010242604FE0B4F1804F24
:1016A00032D040F20040C4F2000084423ED040F606
:1016B0000000C4F20000844240D143F64000C4F26E
:1016C0000200026842F00402026037E044F20000C7
:1016D000C4F20100844220D044F60000C4F20100AC
:1016E00084422BD143F64000C4F20200426842F427
:1016F0008022426022E043F64000C4F20200026809
:1017000042F00802026019E043F64000C4F2020011
:10171000026842F00102026010E043F64000C4F2A9
:101720000200426842F48032426007E043F6400023
:10173000C4F20200026842F0020202602046FFF793
:1017400079FF206820F010002060206840F0010040
:10175000206010BD70B544F20044C4F2000420467D
:1017600000F03AFA002808BF70BD204600F036F9B4
:1017700040F20015C2F200052870204629460122D9
:10178000012600F05FF940F20801C2F2000128785A
:101790000968814215D140F29400C2F2000006703F
:1017A00040F2FC00C2F200000021016040F204019E
:1017B000C2F200012046012200F044F9FFF748FD83
:1017C00070BD40F2FC0440F20C01C2F20004C2F20F
:1017D00000012068096888420ADD0020206040F28C
:1017E0009800C2F20000FEF70BFE06A0FEF7F2FD25
:1017F0002878216840F29802C2F200025054481C36
:10180000206070BD4552524F52203A20546F6F20D5
:101810006C6F6E6720737472696E670D0000000054
:101820002DE9F04F81B043F6440AC4F2020A04469F
:101830005AF8140C174640F001000E46DDF82880D7
:1018400044F200494AF8140C0846114602221D468B
:10185000C4F20009FFF77CF9284641460222FFF74F
:1018600077F9F81707EB507020F0070224203B4669
:1018700009F55041082FB4BF20209B1A8C424FEA33
:1018800083020CBF08210721335801FA02F21A43E0
:10189000B8F1070F325006DC4FEA880001FA00F079
:1018A00005F120010CE04FEAE87008EB507020F0E1
:1018B0000700A8EB0000800001FA00F005F1240108
:1018C0000A68DDF82CB01043086030463946002223
:1018D000FFF79AF9284641460022FFF795F909F5E6
:1018E0004C45AC4206D04C450BD0DAF8000040F035
:1018F000200003E0DAF8000040F01000CAF8000011
:1019000005E05AF8040C40F400304AF8040CE06892
:1019100030A120F40050E060E0684C4508BF04317D
:1019200091ED000A01EE10BAB8EEC11A80EE010A7C
:1019300020F48060E060E06820F48050E060E068BF
:1019400020F40040E060206920F44050BCEEC01A52
:10195000B8EE412A11EE106A30EE420AB3EE001AD8
:1019600020EE010A206100F013FABCEEC00A10EE6E
:10197000100A0F2888BF013640EA0610A16888BF08
:1019800030010843A060E068AC4240F00C00E06029
:10199000E06840F02000E06007D04C450BD04720C5
:1019A0000521472500F0BCF80AE025200721252560
:1019B00000F0B6F804E026200621262500F0B0F855
:1019C000284600F07DF8E06840F40050E06001B087
:1019D000BDE8F08FA037A04AA037204A01688906E9
:1019E000FCD54068C0B27047B0B582B044F2004E3A
:1019F000C4F2000E8C460EF54C4188424FF00002B6
:101A00004FF0000308BF062270450EF5DE3508BF13
:101A10000222884208BF03232946704508BF0323DA
:101A20000EF5504418BF0EF5E031A04202BF294622
:101A30000B220C2300930B46CDF804C0FFF7F0FEF9
:101A400002B0B0BD62B14FF0000C00BF03681B06CE
:101A5000FCD511F80C300CF1010C94454360F5D124
:101A600001684906FCD5016821F04001016070471A
:101A7000C1B200F01F00012202FA00F04EF2001283
:101A8000CEF2000242EAD10121F003010860704762
:101A9000C1B200F01F00012202FA00F04EF2001263
:101AA000CEF2000242EAD10121F003010860704742
:101AB0004EF20010CEF200004FF48021016070471A
:101AC000C1B200F01F00012202FA00F04EF2001233
:101AD000CEF2000242EAD10121F003010860704712
:101AE000E422C0F2E002090162F31F200170704796
:101AF0004EF62350CEF200003021017070470000F6
:101B0000E421C0F2E00161F31F2040210170704721
:101B10004EF21240CEF2000000210170704700002A
:101B2000E422C0F2E002090162F31F200170704755
:101B300042F20000C4F20100016821F004010160DA
:101B40007047000042F20000C4F20100016821F079
:101B500020010160704700000169002101617047A8
:101B600043F61442C4F201020121136801FA00F0A5
:101B7000184310607047000040F28C01C2F200016F
:101B8000086000BF08680028FCD1704710B582B01B
:101B900004468DF8070044F20040C4F200000DF145
:101BA00007010122FFF74EFF204602B010BD0000E2
:101BB00042F20000C4F20100006800F00400704727
:101BC00042F20000C4F201000068C0F34010704708
:101BD000006900F001007047006800F020007047C5
:101BE00043F61441C4F20101096821FA00F000F043
:101BF0000100704700F054F8FEF754FE17A0FEF7FE
:101C0000E9FB40F2780940F2800A40F2840548F28C
:101C10008044C2F200090FF25408C2F2000A0FF227
:101C20005C0BC2F2000518A61CA7C0F21E0400BF80
:101C3000D9F800104046FEF727FBDAF800105846A6
:101C4000FEF722FB29783046FEF71EFB3846FEF7EA
:101C5000C1FB2046FFF790FFEAE700BF48656C6CC8
:101C60006F204E75636C656F0D000000424C696E0D
:101C70006B203D2025640D0A0000000041444320F4
:101C80003D2025640D0A00004C4544315F434F4E12
:101C900044203D2025640D0A000000000D000000D6
:101CA000B0B5FFF765FA0120FFF75EFB0024C4F230
:101CB000020404F5006528460D2101220123FEF7E8
:101CC00085FE28460D210022FEF742FF28460D2101
:101CD0000222FEF799FF204605210122FEF738FF78
:101CE000204605210122FEF769FF2046052100223A
:101CF000FEF776FF204605210022FEF785FFA4F5BA
:101D0000DE304FF41651FFF76FFEA4F5FC304FF4B0
:101D1000FA71FFF7B5FB204609210122FEF718FFF3
:101D2000204609210122FEF749FF20460921002211
:101D3000FEF756FF204609210022FEF765FFA4F5B5
:101D4000FE30C821FFF788FC40F20415C2F20005FE
:101D5000284621460622FEF77DFF2846C821FFF7C8
:101D6000DBF804F58064204600210122FEF7ECFC3C
:101D7000204601210122FEF7E7FC0120FEF7A0FD2D
:101D800040F21001C2F200010220FEF75FFDB0BD7B
:101D900010B52DED028BB0EE408A18EE100A00F05F
:101DA00097F801EE100A18EE100AB7EE000A78EE66
:101DB000410A10F0004F4FF07F4010EE901A12D001
:101DC000B1F13F4F24BF10EE901AB0EB410F12D289
:101DD00010EE901AB1F17C5F1CDD10EE901AB0EBA2
:101DE000410F17D314E0B1F13F4F07D910EE901A0D
:101DF000B0EB410F02D331EE401A0BE010EE901A17
:101E0000B1F17C5F06DB10EE901AB0EB410F01D30D
:101E100031EE001A18EE100ABDEC028B11EE101A0A
:101E200061F31E0000EE100A10BD0EF1020E2EF03E
:101E3000030E5EF8044B244204D44FEA4102B2F18F
:101E40007F4F11D84FEA4003B3F17F4F0CD80ED12A
:101E50004FEAD07C0CEB4C0C0CF1020CB2F17F4F32
:101E600008BF4CEBD17C04E04FF0080C01E04FEAD6
:101E7000D17C0CEB4C0324FA03F404F00704B4F116
:101E8000040C06D20EEB840CBDE810404CF0010CA3
:101E90006047DFE80CF0070802024FF00040A0F5B1
:101EA000800010BD0846420018BFD2F1807288BF82
:101EB00000F0004010BDF1EE100A4FF6FF71C0F2C5
:101EC000C03120EA010040F04070E1EE100A704796
:101ED0005FEA400C5FEA1C6CBCF17F0314D4D3F1C1
:101EE000170240F31C804FF0010C0CFA02FCACF11D
:101EF0000103034020EA0300B3EB5C0208BF10EAD1
:101F00000C0F88BF60447047B3F1FF3F28BF5FEA02
:101F1000002C00F0004088BF40F07E507047BCF1BC
:101F2000FF0FB8BF704710B5FFF77FFF40DBB6BEAD
:101F3000501F00080000002018000000D401000815
:101F4000681F00081800002000070000F0010008CA
:101F50000024F4000A0A00000D0000000A0000003E
:081F6000080000000900000068
:040000050800019955
:00000001FF
