:020000040800F2
:100000008806002039020008410200084302000867
:1000100045020008470200084902000800000000ED
:100020000000000000000000000000004B0200087B
:100030004D020008000000004F020008390A0008C5
:10004000530200085302000853020008530200083C
:10005000530200085302000853020008530200082C
:1000600053020008530200087106000853020008FA
:10007000530200085302000853020008530200080C
:10008000530200085302000821030008000000008A
:10009000000000000000000000000000BD06000895
:1000A00053020008530200085302000853020008DC
:1000B00053020008530200085302000853020008CC
:1000C00053020008530200085302000853020008BC
:1000D0005302000853020008530200080000000009
:1000E00053020008530200085302000800000000F9
:1000F00000000000000000000000000053020008A3
:1001000000000000530200085302000853020008D8
:1001100000000000000000000000000000000000DF
:10012000530200085302000853020008530200085B
:100130005302000800000000000000000000000062
:100140000000000000000000000000005302000852
:10015000530200085302000853020008530200082B
:1001600053020008530200080000000000000000D5
:10017000000000000000000000000000000000007F
:100180000000000053020008000000000000000012
:10019000530200085302000800F002F800F03CF897
:1001A0000AA090E8000C82448344AAF10107DA45D2
:1001B00001D100F031F8AFF2090EBAE80F0013F0E8
:1001C000010F18BFFB1A43F001031847F40C00009D
:1001D000140D0000103A24BF78C878C1FAD852072D
:1001E00024BF30C830C144BF04680C6070470000B1
:1001F0000023002400250026103A28BF78C1FBD830
:10020000520728BF30C148BF0B6070471FB500F0D0
:1002100049FE1FBD10B510BD00F047F81146FFF7AD
:10022000F5FF00F0D9FD00F065F803B4FFF7F2FF29
:1002300003BC00F06DF800000948804709480047FA
:10024000FEE7FEE7FEE7FEE7FEE7FEE7FEE7FEE786
:10025000FEE7FEE704480549054A064B70470000E3
:10026000910A0008990100088800002088060020F3
:10027000880200208802002010B5044603E000F048
:100280007FFD401C09D014F8010B05490028F6D168
:10029000BDE810400A2000F073BD4FF0FF3010BDE4
:1002A00078000020704770477047754600F02CF8C2
:1002B000AE4605006946534620F00700854618B053
:1002C00020B5FFF7C7FFBDE820404FF000064FF014
:1002D00000074FF000084FF0000BAC46ACE8C00937
:1002E000ACE8C009ACE8C009ACE8C00921F00701DE
:1002F0008D46704710B50446AFF300802046BDE838
:100300001040FFF792BF0000004870471000002027
:1003100001491820ABBEFEE726000200704700002E
:1003200080B500F047FD002818BF00F009FD00F07F
:1003300039FD002808BF80BD40F28000C2F20000F5
:100340000168012904D842F24C02C4F20102126889
:10035000B1FA81F14909016080BD00002DE9F04149
:10036000054642F2080740F20040C4F20107C4F219
:1003700000004FF00074854208BF4FF000643868F9
:10038000B5F1804F20F002003860386808BF4FF0A8
:10039000C06440F480603860284690460E4600F005
:1003A00085FB2868314620F001002860284600F0CF
:1003B000FBFB686820F070006860686840F04000EF
:1003C0006860A86920F07000A861A86940F060002A
:1003D000A861286A40F001002862E86A4008686362
:1003E000286840F001002860386820F070603860AC
:1003F000386820433860386820F04051A8F1010087
:100400000228396088BFBDE8F0813968013041EACF
:1004100000703860BDE8F0812DE9F04142F204043B
:1004200090460E460746C4F2010400F073F80546F4
:1004300038463146032200F029FA38463146002278
:1004400000F05AFA43F64400C4F202000168092D94
:1004500041F480710160D4F8000320F44030C4F806
:100460000003D4F8000340F48030C4F8000320688F
:1004700020F04070206008DC05EB45000421E268B4
:1004800001FA00F01043E06014E046F26760C6F243
:10049000666055FB00F0811001EBD07000EB80002E
:1004A000A5EB400000EB40000421A26801FA00F037
:1004B0001043A060606805F01F0120F0020060603A
:1004C000206840F480702060A06A20F47000A06270
:1004D000206B20F01F002063206B084320632068FE
:1004E00020F020002060206840F02000206000F014
:1004F0001FFC00F0FDFBB8F1010F18BFBDE8F08153
:1005000040F20040C4F2000001210122FFF726FF63
:10051000BDE8F08140F60002C4F20202904214D01D
:1005200040F20042C4F20202904214D00022C4F20F
:100530000202904218BF7047082905D2C8B2F322C0
:1005400022FA00F0C00710D1FEE7062902D201F11D
:100550000A007047FEE7002904BF08207047012900
:1005600004BF0920704700BFFEE702A050F8210039
:10057000704700BF00000000010000000000000004
:10058000000000000400000005000000060000005C
:100590000700000070B542F22C0EC4F2010EDEF826
:1005A0000020012822F47002CEF8002040F2000260
:1005B000CFF6F072DEF8003002EB005242EA03029E
:1005C000CEF80020B8BF70BD00234FF01F0C0022F2
:1005D00014E000BFDEF808400CFA03F5AC43CEF897
:1005E000084051F82240DEF808509C402C43CEF8D9
:1005F00008400132904203F105032AD0052AE9D9C7
:100600000B2A13D8A3F11E04DEF804500CFA04F6EA
:10061000B543CEF8045051F82250DEF8046005FAD4
:1006200004F43443CEF80440E3E700BFA3F13C04F4
:10063000DEF800500CFA04F6B543CEF8005051F83D
:100640002250DEF8006005FA04F43443CEF800408E
:10065000CFE770BD42F20800C4F20100016841F02A
:1006600001010160016841F08041016070470000B4
:1006700080B5042000F0A6FB002808BF80BD40F232
:100680007C00C2F200000268511C016062B10229C4
:1006900006D140F27001C2F2000100220A6002603D
:1006A000042000F057FB80BD40F27002C2F200024D
:1006B000012313600229F3D1EBE7000080B5082085
:1006C00000F080FB002808BF80BD082000F042FB3E
:1006D00080BD000080B543F60042C4F20102012152
:1006E0001368814019430428116001D8063007E0DF
:1006F0000A2801D2172003E00F2888BF80BD2820D8
:1007000040B200F0D5FA80BD2DE9F0410D4643F628
:100710004401C4F2020198460B6843F6084CC4F247
:10072000010C43F480430B600C21AC08ACF58066EF
:1007300001EA850E6FF00F0156F8247001FA0EF1F0
:1007400007EA0103A0F18041A1F5023707F5006136
:100750004FEAB121072946F8243000F25B80DFE838
:1007600001F0041321384959595407F580614FEAC3
:10077000B1210023062946F824304BD8DFE801F0E8
:100780000412293A4A4A4500012101FA0EF34FEAC0
:10079000B721052946F824303CD8DFE801F0031AD8
:1007A0002B3B3B3641F600430221C4F2020301FA1F
:1007B0000EF1984246F8241027D041F20001C4F20D
:1007C0000201884216D040F60041C4F2020188427C
:1007D00020D141F600430321C4F2020301FA0EF1D5
:1007E000984246F8241010D041F20001C4F20201F0
:1007F00088420FD141F600430421C4F2020301FAFA
:100800000EF1984246F8241004D1072000FA0EF0A9
:1008100046F82400022A0CD0012A16D0E2B943F689
:100820000C41C4F2010101200A68A840104308608D
:1008300012E043F60C41C4F2010101200A68A8400D
:1008400002430A60DCF8001003E00120DCF800102D
:10085000A8400843CCF800002846FFF73BFF042DD2
:1008600001D8A81D07E00A2D01D2172003E00020BF
:10087000102D38BF282045B22846414600F040FAE6
:10088000284600F015FABDE8F081000070B5054675
:1008900040F60000C4F20200144685420E460DD018
:1008A00040F20040C4F2020085420AD00020C4F2A7
:1008B0000200854207D100F031F804E000F042F870
:1008C00001E000F035F828463146224600F002F8F3
:1008D00070BD000080B549004FF0030CD0F800E077
:1008E0000CFA01F32EEA03030360036802FA01F134
:1008F0001943016080BD000080B549004FF0030C32
:10090000D0F80CE00CFA01F32EEA0303C360C368CD
:1009100002FA01F11943C16080BD000043F63000C6
:10092000C4F20200016841F001010160704700005B
:1009300043F63000C4F20200016841F00201016098
:100940007047000043F63000C4F20200016841F035
:10095000040101607047000043F60800C4F2020081
:10096000D0F8F81321F00F01C0F8F813D0F8F813FD
:1009700041F00201C0F8F81350F8081C41F00101E1
:1009800040F8081C50F8081C8907FBD550F8081CD3
:10099000542221F0807140F8081C50F8041C21F406
:1009A000800140F8041C50F8041C40F8041C50F866
:1009B000041C62F38E1140F8041C50F8041C082239
:1009C00062F3050140F8041C50F8041C21F4403186
:1009D00040F8041C50F8081C41F0807140F8081CD5
:1009E00050F8081C8901FBD4016821F00301016063
:1009F000016841F002010160016801F00C01082961
:100A0000FAD1016821F0F0010160016821F4E051A0
:100A10000160016841F480510160016821F4604186
:100A2000016040F200004BF60051C2F20000C0F23B
:100A3000015101607047000040F27400C2F20000F2
:100A40000168002908BF70470168013901607047DB
:100A500080B54EF21001CEF2000140F641230A6843
:100A600058434FF0FF33002203EB40100A60486008
:100A70008A60086840F004000860086840F00200DE
:100A80000860086840F00100086000F041F980BD8E
:100A90004EF68850CEF20000016841F4700101600A
:100AA0004FF0006140F8801C7047000010B504460C
:100AB00040F6FF30C4F20000844219DD43F6FF70B7
:100AC000C4F2010084422BDC40F60040C4F2000076
:100AD00084423AD00020C4F20100844258D143F647
:100AE0004000C4F20200426842F0010242604FE05E
:100AF000B4F1804F32D040F20040C4F20000844292
:100B00003ED040F60000C4F20000844240D143F6DB
:100B10004000C4F20200026842F00402026037E0C2
:100B200044F20000C4F20100844220D044F60000E8
:100B3000C4F2010084422BD143F64000C4F202000B
:100B4000426842F48022426022E043F64000C4F250
:100B50000200026842F00802026019E043F6400019
:100B6000C4F20200026842F00102026010E043F6A3
:100B70004000C4F20200426842F48032426007E062
:100B800043F64000C4F20200026842F00202026032
:100B9000204600F009F8206820F01000206020684E
:100BA00040F00100206010BD01EB810142F2CF0254
:100BB000490082624FF0FF3212FA81F1C162704740
:100BC00080B543F63000C4F20200016941F2171209
:100BD00041F400310161016841F001010160002030
:100BE000C4F20200016821F0F0010160016841F0E7
:100BF000A0010160016A41F4EE410162816841F0A7
:100C0000F0018160C16821F0F001C160C16841F06C
:100C10005001C160416821F00C01416044F20C4078
:100C2000C4F20000016821F400510160016821F460
:100C300080510160016821F480610160416821F404
:100C400040514160016821F40041016050F8041CEA
:100C5000114340F8041C016841F00C0101608168F7
:100C600041F0C0018160016841F4005101600168F8
:100C700041F020010160262000F052F8262000F00B
:100C800027F880BD62B14FF0000C00BF03681B065F
:100C9000FCD511F80C300CF1010C94454360F5D1F2
:100CA00001684906FCD5016821F0400101607047E8
:100CB000C1B200F01F00012202FA00F04EF2001251
:100CC000CEF2000242EAD10121F003010860704730
:100CD000C1B200F01F00012202FA00F04EF2001231
:100CE000CEF2000242EAD10121F003010860704710
:100CF0004EF20010CEF200004FF4802101607047E8
:100D0000E422C0F2E002090162F31F200170704783
:100D10004EF62350CEF200003021017070470000E3
:100D2000E421C0F2E00161F31F201021017070473F
:100D30004EF21240CEF200002021017070470000F8
:100D400042F20000C4F20100016821F020010160BC
:100D50007047000043F61442C4F2010201211368F7
:100D600001FA00F0184310607047000040F274016F
:100D7000C2F20001086000BF08680028FCD170477B
:100D800010B582B004468DF8070044F20040C4F26A
:100D900000000DF107010122FFF774FF204602B0A9
:100DA00010BD000042F20000C4F201000068C0F370
:100DB0004000704742F20000C4F201000068C0F336
:100DC0004010704743F61441C4F20101096821FA4A
:100DD00000F000F00100704700F026F8FFF73AFC41
:100DE00040F27006C2F2000609A40CA504E000BFA0
:100DF0004FF47A70FFF7BAFF306810B92046FFF75A
:100E00003BFA30680128F3D12846FFF735FAEFE7BF
:100E100064617974696D650D000000006E69676832
:100E2000742074696D650D0010B5FFF795FDFFF72F
:100E3000C7FE0120FFF70CFE40F20044C4F202049A
:100E4000204608210022FFF721FD2046082100222C
:100E50000023FFF759FC204608210122FFF74CFD33
:100E6000204604210022FFF711FD20460421022222
:100E70000023FFF749FC204604210122FFF73CFD37
:100E8000204600210122FFF7C7FA20460121012256
:100E9000FFF7C2FA40F20401C2F200010220FFF79C
:100EA00079FB10BDF1EE100A4FF6FF71C0F2C031B0
:100EB00020EA010040F04070E1EE100A70470000A7
:100EC000E00E00080000002010000000D40100081F
:100ED000F00E00081000002078060000F001000865
:100EE0000024F400080000000900000000000000D9
:040000050800019955
:00000001FF
