:020000040800F2
:1000000018070020490200085102000853020008A6
:1000100055020008570200085902000800000000BD
:100020000000000000000000000000005B0200086B
:100030005D020008000000005F020008250E0008B5
:1000400063020008630200086302000863020008FC
:1000500063020008630200086302000863020008EC
:1000600063020008630200086302000863020008DC
:1000700063020008630200086302000863020008CC
:100080006302000863020008630200080000000029
:1000900000000000000000000000000063020008F3
:1000A000630200086302000863020008630200089C
:1000B000630200086302000863020008630200088C
:1000C000630200086302000863020008630200087C
:1000D00063020008A50F000865100008000000007A
:1000E00063020008630200086302000800000000C9
:1000F0000000000000000000000000006302000893
:1001000000000000630200086302000863020008A8
:1001100000000000000000000000000000000000DF
:10012000630200086302000863020008630200081B
:100130006302000800000000000000000000000052
:100140000000000000000000000000006302000842
:1001500063020008630200086302000863020008EB
:1001600063020008630200080000000000000000B5
:10017000000000000000000000000000000000007F
:100180000000000063020008000000000000000002
:10019000630200086302000800F002F800F044F86F
:1001A0000AA090E8000C82448344AAF10107DA45D2
:1001B00001D100F039F8AFF2090EBAE80F0013F0E0
:1001C000010F18BFFB1A43F001031847B81A0000CB
:1001D000D81A0000103A24BF78C878C1FAD852075C
:1001E00024BF30C830C144BF04680C6070470000B1
:1001F0000023002400250026103A28BF78C1FBD830
:10020000520728BF30C148BF0B607047642900F017
:10021000A580732900F08F81002070471FB501F081
:10022000EBFC1FBD10B510BD00F0B8F91146FFF78B
:10023000F5FF01F0A9F800F0D6F903B4FFF7F2FFDB
:1002400003BC00F0DDF90000094880470948004779
:10025000FEE7FEE7FEE7FEE7FEE7FEE7FEE7FEE776
:10026000FEE7FEE704480549054A064B70470000D3
:10027000750E0008990100081801002018070020D9
:1002800018030020180300200FB4044910B503AA76
:10029000029800F055F910BC5DF814FB84000020B2
:1002A0002DE9F0410E460446002020622046E16818
:1002B000884730B3252805D0D4E901219047206A2A
:1002C000401CF2E7E168204600278847050018D067
:1002D000A5F14100192802D820354FF400673246B5
:1002E000294620462760FFF791FF40B1012804D03E
:1002F000F61D26F007060836D8E7361DD6E728464D
:10030000DAE7206ABDE8F08170B50C460546012A9F
:1003100005D02878800600D5EA69002302E0012391
:1003200005E05B1C934202D2E05C0028F9D1A86989
:10033000E618C01AA861286A184428622846AFF354
:10034000008004E0D5E9012114F8010B9047B44284
:10035000F8D32846AFF3008070BD00002DE9F041CE
:100360000646002410687529314616A510D0AFF353
:100370000080002802DA404213A507E031688A07AE
:1003800001D512A502E0490704D511A5012401E019
:10039000AFF3008000210A2206F1240709E0B0FB38
:1003A000F2FCB0FBF2F302FB1C003030785418462C
:1003B000491C0028F3D123462A463046BDE8F041C7
:1003C00000F04EB8000000002D0000002B000000DF
:1003D00020000000014900F0C1BF0000840000209F
:1003E00010B5044603E000F0B9FF401C09D014F832
:1003F000010B05490028F6D1BDE810400A2000F0A5
:10040000ADBF4FF0FF3010BD840000204FF0000260
:1004100000B5134694469646203922BFA0E80C50FA
:10042000A0E80C50B1F12001BFF4F7AF090728BFD5
:10043000A0E80C5048BF0CC05DF804EB890028BF51
:1004400040F8042B08BF704748BF20F8022B11F07A
:10045000804F18BF00F8012B7047704770477047F6
:100460002DE9F0470D4699469246044600F12408CE
:100470000168880604D5E06921F01001216000E0E0
:100480000120A84201DD471B00E00027A1697A197D
:1004900002EB0900081AA0612078C00602D42046A9
:1004A000AFF30080002608E0D4E901211AF8060025
:1004B0009047206A401C761C20624E45F4DB207871
:1004C000C0060AD52046AFF3008006E0D4E901213A
:1004D00030209047206A401C2062381EA7F1010797
:1004E000F4DC07E0D4E9012118F805009047206A00
:1004F000401C2062281EA5F10105F3DC2046AFF365
:1005000000802078000602D50220BDE8F087012097
:10051000FBE710B5436913B1AFF3008001E0FFF7CB
:10052000F3FE012010BD127800F124010A700022B0
:100530004A700122EDE711684FF0FF32E9E7000051
:10054000074B70B50D467B4400F011F80446284671
:1005500000F020F810B14FF0FF3070BD204670BDA4
:10056000130E000001694A1C02610878704700B54B
:100570008FB0CDE901310021059105497944CDE9DC
:10058000031011466846FFF78BFE0FB000BD000058
:10059000E5FFFFFF007B00F080007047754600F02C
:1005A0002BF8AE4605006946534620F00700854605
:1005B00018B020B5FFF756FEBDE820404FF000060A
:1005C0004FF000074FF000084FF0000BAC46ACE8CE
:1005D000C009ACE8C009ACE8C009ACE8C00921F02A
:1005E00007018D46704710B50446AFF300802046E2
:1005F000BDE81040FFF721BE0048704718000020FA
:1006000001491820ABBEFEE726000200704700003B
:1006100070B5054640F60000C4F20200144685425B
:100620000E460DD040F20040C4F2020085420AD0CE
:100630000020C4F20200854207D100F0A3FA04E0D2
:1006400000F0B4FA01E000F0A7FA2846314622464D
:1006500000F002F870BD000080B549004FF0030CB7
:10066000D0F800E00CFA01F32EEA030303600368FC
:1006700002FA01F11943016080BD000080B5490014
:100680004FF0030CD0F808E00CFA01F32EEA030354
:100690008360836802FA01F11943816080BD000024
:1006A000012A0AD0002A18BF70470122436802FAC3
:1006B00001F123EA0101416070470122436802FA17
:1006C00001F119434160704780B549004FF0030CB8
:1006D000D0F80CE00CFA01F32EEA0303C360C36800
:1006E00002FA01F11943C16080BD0000012A0AD05D
:1006F000002A18BF70470122436902FA01F123EA78
:100700000101416170470122436902FA01F1194375
:10071000416170472DE9F04740F2244940F2200A38
:1007200040F2440815460E460746C4F20209C4F2D8
:10073000020AC4F20108C0E9001200F053F9D7E937
:100740000247304629460222FFF762FF304629461B
:100750000222FFF793FF304629460022FFF7A0FF51
:10076000304629460022FFF7AFFFA9000F22DAF832
:10077000000002FA01F39843CAF8000045F3407004
:1007800001EB507020F00700C0EB8500DAF8046040
:1007900082409643CAF80460DAF8006426EA03034C
:1007A000CAF80034D9F80030934340F6FF32C4F25F
:1007B00000029442C9F8003011DD43F6FF73C4F221
:1007C00001039C4270DC40F60043C4F200039C42EB
:1007D00043D00023C4F201039C4203D092E0B4F161
:1007E000804F2ED1072D0BD80123DAF800608B4003
:1007F0001E43CAF80060DAF800643343CAF80034D4
:1008000025F00703082B0BD10123DAF8046083409D
:100810001E43CAF80460D9F800603343C9F80030B9
:1008200094420EDD44F60002C4F20102944247D025
:1008300044F20002C4F20102944241D040F6004268
:1008400007E040F20042C4F20002944205D040F6B4
:100850000002C4F20002944254D1072D0BD80222A8
:10086000DAF800308A401343CAF80030DAF800346E
:100870001A43CAF8002425F00702082A0BD10222E5
:10088000DAF8043082401343CAF80430D9F8003053
:100890001A43C9F8002044F6000344F40062C4F28D
:1008A00001039A420CD02DE044F20002C4F201028E
:1008B000944205D044F60002C4F20102944221D1D0
:1008C000072D0DD80322DAF8003002FA01F143EACD
:1008D0000102CAF80020DAF800241143CAF8001413
:1008E00025F0070108290DD10321DAF8042001FAC7
:1008F00000F042EA0001CAF80410D9F800100843D9
:10090000C9F8000020460121A8F1440500F0C0FA12
:10091000206800202060E06A791E03294DD8400835
:10092000DFE801F002122233A16904F1340221F060
:100930007001A161A16941F06001A161A16941F06B
:100940000801A161012130E0A16904F1380221F41C
:10095000E041A161A16941F4C041A161A16941F4F3
:100960000061A161102120E0E16904F13C0221F065
:100970007001E161E16941F06001E161E16941F02B
:100980000801E1614FF480710FE0E16904F1400278
:1009900021F4E041E161E16941F4C041E161E169D3
:1009A00041F40061E1614FF480511060206A20F051
:1009B00002002062206A08432062AC4205D1D8F8C8
:1009C000000040F40040C8F80000206840F001003A
:1009D0002060BDE8F087000080B5806800F0D6FA9E
:1009E00080BD0000D0E9002140F60003C4F20203FC
:1009F0009A4219D040F20043C4F202039A4220D036
:100A00000023C4F202039A423BD10F2939D8DFE810
:100A100001F0082139383808243840474E38383832
:100A200038084FF080411CE00639032988BF704721
:100A3000DFE801F0131B022040F20041C4F2000184
:100A400060E0033907291CD8DFE801F004070F38FC
:100A50003F49505A4FF080413DE040F20041C4F21E
:100A600000010122C0E90212704740F20041C4F2C5
:100A7000000130E040F20041C4F200010422C0E96C
:100A80000212704740F20041C4F2000101F500611A
:100A900038E040F20041C4F2000101F57C41E0E79A
:100AA00040F20041C4F2000101F57C4113E040F244
:100AB0000041C4F2000101F57C4123E040F2004115
:100AC000C4F2000101F58061CBE740F20041C4F2BD
:100AD000000101F580610222C0E90212704740F274
:100AE0000041C4F2000101F580610BE040F20041D9
:100AF000C4F2000101F580610422C0E902127047CE
:100B00004FF080410322C0E90212704743F6080CFF
:100B1000D0E90212C4F2020C886ADCF8003003F05B
:100B20000303022B04D144F62003C0F2010307E0C3
:100B3000DCF800309B074FF0000308BF4FF47A53F6
:100B4000013A032A88BF70470130B3FBF0F001EE91
:100B5000100AB8EE411A21EE000ABCEEC00A10EEEF
:100B6000100ADFE802F0020B050834310860704714
:100B70003C31086070474031086070473831086088
:100B80007047000043F63000C4F20200016841F0F3
:100B9000010101607047000043F63000C4F202001A
:100BA000016841F0020101607047000043F6300027
:100BB000C4F20200016841F00401016070470000C6
:100BC00043F60800C4F20200D0F8F81321F00F0138
:100BD000C0F8F813D0F8F81341F00201C0F8F81388
:100BE00050F8081C41F0010140F8081C50F8081C9E
:100BF0008907FBD550F8081C542221F0807140F879
:100C0000081C50F8041C21F4800140F8041C50F822
:100C1000041C40F8041C50F8041C62F38E1140F8C8
:100C2000041C50F8041C082262F3050140F8041C5F
:100C300050F8041C21F4403140F8041C50F8081C02
:100C400041F0807140F8081C50F8081C8901FBD461
:100C5000016821F003010160016841F002010160B7
:100C6000016801F00C010829FAD1016821F0F001B6
:100C70000160016821F4E0510160016841F4805194
:100C80000160016821F46041016040F200004BF610
:100C90000051C2F20000C0F2015101607047000033
:100CA0002DE9F04140F28804C2F2000450A0214630
:100CB000FFF7EAFA207840F20405423840F27C0659
:100CC00040F278071328C2F20005C2F20006C2F211
:100CD000000717D8DFE800F00A161A1621161616B4
:100CE00016162D1616161616403416390020C4F2A4
:100CF0000200052101224FF00108FFF7F7FC86F8FA
:100D000000802FE03EA0FFF76BFB2BE0386800214E
:100D10000028C8BF411E396024E00020C4F2020050
:100D2000052100224FF00008FFF7E0FC86F8008064
:100D300018E0286800210028C8BF411E296011E082
:100D400002202860002038600CE038680421042864
:100D5000B8BF411C396005E0286804210428B8BFE9
:100D6000411C296028680021217000F0FBFC9FEDE8
:100D70001C0B54EC105B2A46234600F00BFD2A4660
:100D8000234600F047FC00F013FC00EE100A40F28E
:100D9000F400C2F20000FFF7B9FE3868367800F0C0
:100DA000E1FC2A46234600F0F5FC9FED0F0B0446BC
:100DB0000D4651EC100B22462B4600F0E9FD002EAB
:100DC00004BF2946204600F0F3FB00EE100A40F273
:100DD0000410C2F20000FFF799FEBDE8F08100BFE9
:100DE000000000000000E03F0000000000000040A4
:100DF000627566666572203A2025730D0A00000050
:100E00004552524F52203A205459504520552C44B7
:100E10002C4C2C522C462C422C53204F4C4E5921FA
:100E2000210D000040F28000C2F20000016800299C
:100E300008BF7047016801390160704780B54EF204
:100E40001001CEF2000154230A68584300220138F1
:100E50000A6048608A60086840F00400086008681A
:100E600040F002000860086840F00100086000F0EF
:100E70005BFA80BD4EF68850CEF20000016841F466
:100E8000700101604FF0006140F8801C7047000065
:100E900010B5044640F6FF30C4F20000844219DD6C
:100EA00043F6FF70C4F2010084422BDC40F60040A0
:100EB000C4F2000084423AD00020C4F2010084420F
:100EC00058D143F64000C4F20200426842F00102E9
:100ED00042604FE0B4F1804F32D040F20040C4F2A3
:100EE000000084423ED040F60000C4F2000084427C
:100EF00040D143F64000C4F20200026842F004020E
:100F0000026037E044F20000C4F20100844220D0C5
:100F100044F60000C4F2010084422BD143F64000A5
:100F2000C4F20200426842F48022426022E043F6AA
:100F30004000C4F20200026842F00802026019E0B8
:100F400043F64000C4F20200026842F0010202606F
:100F500010E043F64000C4F20200426842F48032DE
:100F6000426007E043F64000C4F20200026842F02B
:100F700002020260204600F009F8206820F010000C
:100F80002060206840F00100206010BD42F2CF02D6
:100F900001EB810182624FF0FF3202EB4101C1623D
:100FA00070470000B0B541F20004C4F201042046CD
:100FB00000F0E6F9002808BFB0BD204600F05AF95D
:100FC00040F2F005C2F200052870204629460122B1
:100FD00000F084F940F20C01C2F20001287809689F
:100FE000814210D140F2EC00C2F200000021016009
:100FF00040F20801C2F200012046012200F06EF921
:10100000FFF74EFEB0BD40F2EC0440F21001C2F218
:101010000004C2F200012068096888420ADD00204D
:10102000206040F28800C2F20000FFF7EFF906A04E
:10103000FFF7D6F92878216840F28802C2F2000250
:101040005054481C2060B0BD4552524F52203A20A7
:10105000546F6F206C6F6E6720737472696E670DCA
:1010600000000000B0B544F20044C4F20004204681
:1010700000F086F9E0B1204600F0FCF840F2F105FE
:10108000C2F20005287004F54C402946012200F008
:1010900025F92878FFF79EF940F20C01C2F2000111
:1010A00028780968814218BFB0BD02A0FFF798F9FF
:1010B000B0BD00BF0D0000002DE9F04F81B043F638
:1010C000440AC4F2020A04465AF8140C174640F0C7
:1010D00001000E46DDF8288044F200494AF8140C5D
:1010E0000846114602221D46C4F20009FFF790FA95
:1010F000284641460222FFF78BFAF81707EB50709B
:1011000020F0070224203B4609F55041082FB4BFC8
:1011100020209B1A8C424FEA83020CBF0821072132
:10112000335801FA02F21A43B8F1070F325006DCC5
:101130004FEA880001FA00F005F120010CE04FEAC7
:10114000E87008EB507020F00700A8EB000080006A
:1011500001FA00F005F124010A68DDF82CB0104313
:101160000860304639460022FFF7AEFA284641466D
:101170000022FFF7A9FA09F54C45AC4206D04C45D0
:101180000BD0DAF8000040F0200003E0DAF80000AD
:1011900040F01000CAF8000005E05AF8040C40F4D2
:1011A00000304AF8040CE06830A120F40050E06000
:1011B000E0684C4508BF043191ED000A01EE10BA19
:1011C000B8EEC11A80EE010A20F48060E060E068A9
:1011D00020F48050E060E06820F40040E060206986
:1011E00020F44050BCEEC01AB8EE412A11EE106A4D
:1011F00030EE420AB3EE001A20EE010A206100F040
:101200008AF9BCEEC00A10EE100A0F2888BF01361A
:1012100040EA0610A16888BF30010843A060E0687A
:10122000AC4240F00C00E060E06840F02000E0607C
:1012300007D04C450BD047200521472500F07CF80E
:101240000AE025200721252500F076F804E0262075
:101250000621262500F070F8284600F055F8E068D1
:1012600040F40050E06001B0BDE8F08FA037A04A24
:10127000A037204A01688906FCD54068C0B2704793
:10128000B0B582B044F2004EC4F2000E8C460EF5AA
:101290004C4188424FF000024FF0000308BF062285
:1012A00070450EF5DE3508BF0222884208BF0323D1
:1012B0002946704508BF03230EF5504418BF0EF5AC
:1012C000E031A04202BF29460B220C2300930B46BB
:1012D000CDF804C0FFF7F0FE02B0B0BD62B14FF030
:1012E000000C00BF03681B06FCD511F80C300CF194
:1012F000010C94454360F5D101684906FCD50168AD
:1013000021F0400101607047C1B200F01F000122CE
:1013100002FA00F04EF20012CEF2000242EAD101CF
:1013200021F00301086070474EF62350CEF2000012
:101330003021017070470000E422C0F2E002090190
:1013400062F31F200170704740F28001C2F2000179
:10135000086000BF08680028FCD1704710B582B053
:1013600004468DF8070044F20040C4F200000DF17D
:1013700007010122FFF7B2FF204602B010BD0000B6
:10138000006800F02000704700F06AF819A0FFF72D
:1013900027F840F20410C2F20000B0EE000AFFF796
:1013A000B5FB40F2040840F2780A40F27C0644F2B1
:1013B0004025C2F200080FF24C09C2F2000A0FF2F7
:1013C000580BC2F2000619A71AA4C0F20F0500BFFD
:1013D000D8F80000337859F82010DAF8000057F8F0
:1013E00023305BF820202046FEF74EFF2846FFF70B
:1013F000ABFFEDE748656C6C6F2052432063617270
:101400000D000000000000002D0000005A00000048
:1014100087000000B4000000000000001900000078
:10142000320000004B00000064000000801C000837
:101430007C1C0008524320636172202D3E204449E9
:1014400052203A2025645B6465675D2056454C2038
:101450003A2025645B7065725D202573200D0A00BB
:10146000B0B582B0FFF7ACFB0120FFF7E7FC40F21C
:10147000F405C2F20005B7EE080A2846FFF746FB5E
:101480000024C4F20204204605210122FFF7C0F81F
:10149000204605210122FFF7F1F820460521002210
:1014A000FFF7FEF8204605210022FFF70DF94FF067
:1014B00080401421FFF7ECFC284621460122FFF76B
:1014C00029F928461421FFF787FAA4F5FE300221F6
:1014D000FFF7DEFC40F20415C2F200052846214663
:1014E0000622FFF717F928460221FFF775FAA4F53F
:1014F000DE304FF41641FFF7C3FE0A21A4F5704019
:101500004FF4165500912146092223460195FFF715
:10151000D3FD02B0B0BD10B52DED028BB0EE408A08
:1015200018EE100A00F07AFB01EE100A18EE100A0D
:10153000B7EE000A78EE410A10F0004F4FF07F40FE
:1015400010EE901A12D0B1F13F4F24BF10EE901A56
:10155000B0EB410F12D210EE901AB1F17C5F1CDD9E
:1015600010EE901AB0EB410F17D314E0B1F13F4FDA
:1015700007D910EE901AB0EB410F02D331EE401AAA
:101580000BE010EE901AB1F17C5F06DB10EE901AC2
:10159000B0EB410F01D331EE001A18EE100ABDEC8A
:1015A000028B11EE101A61F31E0000EE100A10BD3E
:1015B00021F0004201F00043A2F16052B2F5801F19
:1015C00028BFD2F17F6C0BD95FEA001C43EAC2024C
:1015D00042EB507018BF704728BF20F001007047E1
:1015E000B2F5801FBCBF184670474FEA410C1CF58E
:1015F000001F02D2084600F00CBB70B500F074F971
:1016000000000089FFF7F6BF4FF00040A0F5800012
:101610007047000010B591EA030F48BF83F0004304
:1016200000F1BE81841A71EB030C05D2121943EB51
:101630000C03001B61EB0C014FEA1154A4EB135C8B
:10164000DFF81CE11EEA430F18BF9EEA445F00F07A
:10165000748021EA045123EA0E0343F48013DCF181
:10166000200E32D322FA0CFE10EB0E0023FA0CFEF1
:1016700041EB0E01CCF1200E03FA0EFE10EB0E0032
:10168000CCF1200E51F10001B1F5801F32D201EBF7
:10169000045112FA0EF2BDE8104058BF7047401CCA
:1016A00038BF5FEA420218BF7047002814BF20F01D
:1016B000010041F100014FEA410313F5001F38BF5B
:1016C0007047A1F1C04100F05DB9012A43EB03026C
:1016D000ACF1200CDCF11F0E32BF4FF0000E23FAEC
:1016E0000CF310EB030041EB0451B4EB115FD0D0CD
:1016F000A1EB045101F58011490801EB04515FEAA7
:1017000030000ED350F1000038BF12FA0EFE08D19F
:10171000BDE81040C9E7401C38BF5FEA4202CAD1A9
:10172000C3E7BDE810404FEA410313F5001F38BF7F
:101730007047A1F1C04100F025B99EEA445F08D08E
:1017400011EA5E0FBDE8104004BF01F00041002027
:101750007047BDE8104070B500F0C6F864FBBE3EAF
:101760000000E0FF10F0004248BF4042B0FA80F3B2
:1017700010FA03F10AD0C3F11D0303F5806302EBF5
:1017800003524FEA415002EBD12170474FF0000065
:101790007047000070B5DFF848C11CEA111E1EBF7B
:1017A0001CEA13159EEA0C0F95EA0C0F00F06F80EF
:1017B00081EA03044EEAD47EAE4421EA4C1123EAC6
:1017C0004C1341F4801143F48013AEF17F7EA1FBF2
:1017D000024CA0FB0365361955EB0C05A1FB034C2D
:1017E0004CF10003A0FB021C16EB0C06654153F103
:1017F0000003094218BF46F0010613F4007F0BD125
:101800004FEA03314FEA053041EA155140EA1650DC
:1018100034036FF003020AE04FEAC3214FEAC52008
:1018200041EA555140EA5650F4026FF0020202EBD1
:101830002E4201EB025585EACE710AD05FEA440CD4
:1018400018BF24F0004450F1000041F1000120EAEB
:10185000D47040F2FE7C624500D270BDA84214BF35
:101860004FF080444FF04044002E08BF0024BEF1EA
:10187000806FA8BFA1F1C041BDE8704080F28280B6
:1018800001F1C04101F000414FF0000070470CEA47
:1018900013159EEA0C0F18BF95EA0C0F06D081EACB
:1018A000030E4FF000000EF0004170BD00F01CF878
:1018B0008900013E00F007B800F009B84FEA430C78
:1018C0005FEA5C5C08D081EA030100F05BB84FEA94
:1018D000410C5FEA5C5CF6D102494FF000007047B2
:1018E0000000FF070000F87F0EF1020E2EF0030E3D
:1018F0005EF8046B364205D4012A43EB030515F567
:10190000001F12D8012841EB010C1CF5001F0CD858
:101910000ED14FEAD17C0CEB4C0C0CF1020C15F5FE
:10192000001F08BF4CEBD37C04E04FF0080C01E033
:101930004FEAD37C0CEB4C0526FA05F606F00706B9
:10194000B6F1040C06D20EEB860CBDE870404CF0EC
:10195000010C6047DFE80CF0090B02024FF0004178
:10196000A1F500214FF0000070BD19461046012876
:1019700051EB010418BFD4F5001484BF002001F01E
:10198000004170BD0808A0F500114FEA3101704711
:1019900010B591EA030F48BF83F000433FF542AE14
:1019A000841A71EB030C07D28CF0004C121943EB34
:1019B0000C03001B61EB0C014FEA1154A4EB135C08
:1019C000DFF8A4E11EEA430F18BF9EEA445F00F06F
:1019D000B48021EA045123EA6E035242C3EB6E0342
:1019E00038BF5B1EDCF1200E25D322FA0CFE10EB73
:1019F0000E0043FA0CFE41EB0E01CCF1200E03FA6F
:101A00000EFE10EB0E00CCF1200E51F1000129D496
:101A100001EB045112FA0EF2BDE8104058BF7047B6
:101A2000401C1CBFB2F1004F704700280CBF491C7E
:101A300020F00100704712EB020E43EB030218BFC7
:101A40004FF0010E4EEA4202ACF1200CDCF11E0E0A
:101A500056D943FA0CFE10EB0E00CCF11E0E51F1DC
:101A6000FF31D5D50EF1010E12FA0EFE404141EBC9
:101A7000010101EB445C5FEA5C5C10D901EB0451AD
:101A800010EBDE7038BFBEF1004FBDE8104018BF4C
:101A9000704700280CBF491C20F00100704734D269
:101AA0004FEAD42C24F4006411F500111BD0B1FAD4
:101AB00081F20B3AA41AA41ED2F12003914030FA0D
:101AC00003F31943904001EBCC7101EB0451002C5E
:101AD000BDE81040A8BF704701F1C04101F00041CE
:101AE0004FF000007047B0FA80F310FA03F102D112
:101AF000BDE810407047E41A173C4805C90AE2E700
:101B000001EB0451BDE81040704749104FEA300026
:101B100001EB0451BDE8104002E04FF000017047B6
:101B20004A0008BF0042F8D0B2F5001F28BF704736
:101B300001F000414FF0000070479EEA445F07D07B
:101B400011EA5E0FBDE8104004BF0021002070477D
:101B5000BDE8104070B5FFF7C7FE00BF40DFF63E9E
:101B6000104683F0004170470000E0FF0EF1020EC6
:101B70002EF0030E5EF8044B244204D44FEA4102D7
:101B8000B2F17F4F11D84FEA4003B3F17F4F0CD829
:101B90000ED14FEAD07C0CEB4C0C0CF1020CB2F1E4
:101BA0007F4F08BF4CEBD17C04E04FF0080C01E004
:101BB0004FEAD17C0CEB4C0324FA03F404F0070445
:101BC000B4F1040C06D20EEB840CBDE810404CF0CE
:101BD000010C6047DFE80CF0070802024FF00040FC
:101BE000A0F5800010BD0846420018BFD2F18072F7
:101BF00088BF00F0004010BDF1EE100A4FF6FF71F3
:101C0000C0F2C03120EA010040F04070E1EE100A5D
:101C10007047FF2141EAD050C00570475FEA400C91
:101C20005FEA1C6CBCF17F0314D4D3F1170240F3BC
:101C30001C804FF0010C0CFA02FCACF101030340D4
:101C400020EA0300B3EB5C0208BF10EA0C0F88BF68
:101C500060447047B3F1FF3F28BF5FEA002C00F0FB
:101C6000004088BF40F07E507047BCF1FF0FB8BF06
:101C7000704710B5FFF77AFF40DBB6BE425744000D
:101C800046574400A81C000800000020180000006F
:101C9000D4010008C01C0008180000200007000044
:101CA000F0010008000000000024F4000200000021
:101CB0000A0A00000D0000000A00000000000000F9
:040000050800019955
:00000001FF
