:020000040800F2
:100000008806002041020008490200084B0200084F
:100010004D0200084F0200085102000800000000D5
:100020000000000000000000000000005302000873
:10003000550200080000000057020008C908000827
:100040005B0200085B0200085B0200085B0200081C
:100050005B0200085B0200085B0200085B0200080C
:100060005B0200085B0200085B0200085B020008FC
:100070005B0200085B0200085B0200085B020008EC
:100080005B0200085B0200085B0200080000000041
:100090000000000000000000000000005B020008FB
:1000A0005B0200085B0200085B0200085B020008BC
:1000B000350900085B0200085B0200085B020008CB
:1000C0005B0200085B0200085B0200085B0200089C
:1000D0005B0200085B0200085B02000800000000F1
:1000E000010500085B0200085B0200080000000038
:1000F0000000000000000000000000005B0200089B
:10010000000000005B0200085B0200085B020008C0
:1001100000000000000000000000000000000000DF
:100120005B0200085B0200085B0200085B0200083B
:100130005B0200080000000000000000000000005A
:100140000000000000000000000000005B0200084A
:100150005B0200085B0200085B0200085B0200080B
:100160005B0200085B0200080000000000000000C5
:10017000000000000000000000000000000000007F
:10018000000000005B02000800000000000000000A
:100190005B0200085B02000800F002F800F041F882
:1001A0000AA090E8000C82448344AAF10107DA45D2
:1001B00001D100F036F8AFF2090EBAE80F0013F0E3
:1001C000010F18BFFB1A43F0010318473C0C000055
:1001D0005C0C0000103A24BF78C878C1FAD85207E6
:1001E00024BF30C830C144BF04680C6070470000B1
:1001F0000023002400250026103A28BF78C1FBD830
:10020000520728BF30C148BF0B607047642900F017
:100210007780002070471FB500F0E8FD1FBD10B5C6
:1002200010BD00F033F91146FFF7F5FF00F07AFD3D
:1002300000F051F903B4FFF7F2FF03BC00F058F9E6
:100240000948804709480047FEE7FEE7FEE7FEE76A
:10025000FEE7FEE7FEE7FEE7FEE7FEE704480549A6
:10026000054A064B7047000019090008990100086B
:1002700088000020880600208802002088020020D4
:100280000FB4044910B503AA029800F0D1F810BCCD
:100290005DF814FB700000202DE9F0410E46044685
:1002A000002020622046E168884730B3252805D029
:1002B000D4E901219047206A401CF2E7E16820461A
:1002C00000278847050018D0A5F14100192802D859
:1002D00020354FF400673246294620462760FFF755
:1002E00095FF40B1012804D0F61D26F00706083618
:1002F000D8E7361DD6E72846DAE7206ABDE8F08160
:100300002DE9F0410646002410687529314616A5EE
:1003100010D0AFF30080002802DA404213A507E0B6
:1003200031688A0701D512A502E0490704D511A555
:10033000012401E0AFF3008000210A2206F1240726
:1003400009E0B0FBF2FCB0FBF2F302FB1C00303022
:1003500078541846491C0028F3D123462A463046D3
:10036000BDE8F04100F00BB8000000002D000000D7
:100370002B000000200000007047704770472DE9F7
:10038000F0470D4699469246044600F1240801685C
:10039000880604D5E06921F01001216000E0012009
:1003A000A84201DD471B00E00027A1697A1902EB92
:1003B0000900081AA0612078C00602D42046AFF3D5
:1003C0000080002608E0D4E901211AF806009047D1
:1003D000206A401C761C20624E45F4DB2078C00663
:1003E0000AD52046AFF3008006E0D4E90121302091
:1003F0009047206A401C2062381EA7F10107F4DCF8
:1004000007E0D4E9012118F805009047206A401C54
:100410002062281EA5F10105F3DC2046AFF3008021
:100420002078000602D50220BDE8F0870120FBE716
:10043000074B70B50D467B4400F011F80446284682
:1004400000F020F810B14FF0FF3070BD204670BDB5
:10045000AB08000001694A1C02610878704700B5CA
:100460008FB0CDE901310021059105497944CDE9ED
:10047000031011466846FFF70FFF0FB000BD0000E4
:10048000E5FFFFFF007B00F080007047754600F03D
:100490002BF8AE4605006946534620F00700854616
:1004A00018B020B5FFF7DAFEBDE820404FF0000697
:1004B0004FF000074FF000084FF0000BAC46ACE8DF
:1004C000C009ACE8C009ACE8C009ACE8C00921F03B
:1004D00007018D46704710B50446AFF300802046F3
:1004E000BDE81040FFF7A6BE004870470800002096
:1004F00001491820ABBEFEE726000200704700004D
:1005000080B50D2000F004FC002808BF80BD40F23B
:100510007C00C2F200000268511C0160A2B10229F5
:100520001CD140F28001C2F20001096840F2780259
:10053000C2F20002116040F26801C2F20001012221
:100540000A600021016009E040F28000C2F2000070
:10055000006840F27401C2F2000108600D2000F052
:10056000ABFB80BD80B543F60042C4F2010201211D
:100570001368814019430428116001D8063007E050
:100580000A2801D2172003E00F2888BF80BD282049
:1005900040B200F03DFB80BD2DE9F0410D4643F631
:1005A0004401C4F2020198460B6843F6084CC4F2B9
:1005B000010C43F480430B600C21AC08ACF5806661
:1005C00001EA850E6FF00F0156F8247001FA0EF162
:1005D00007EA0103A0F18041A1F5023707F50061A8
:1005E0004FEAB121072946F8243000F25B80DFE8AA
:1005F00001F0041321384959595407F580614FEA35
:10060000B1210023062946F824304BD8DFE801F059
:100610000412293A4A4A4500012101FA0EF34FEA31
:10062000B721052946F824303CD8DFE801F0031A49
:100630002B3B3B3641F600430221C4F2020301FA90
:100640000EF1984246F8241027D041F20001C4F27E
:100650000201884216D040F60041C4F202018842ED
:1006600020D141F600430321C4F2020301FA0EF146
:10067000984246F8241010D041F20001C4F2020161
:1006800088420FD141F600430421C4F2020301FA6B
:100690000EF1984246F8241004D1072000FA0EF01B
:1006A00046F82400022A0CD0012A16D0E2B943F6FB
:1006B0000C41C4F2010101200A68A84010430860FF
:1006C00012E043F60C41C4F2010101200A68A8407F
:1006D00002430A60DCF8001003E00120DCF800109F
:1006E000A8400843CCF800002846FFF73BFF042D44
:1006F00001D8A81D07E00A2D01D2172003E0002031
:10070000102D38BF282045B22846414600F0B0FAE7
:10071000284600F07DFABDE8F081000070B505467E
:1007200040F60000C4F20200144685420E460DD089
:1007300040F20040C4F2020085420AD00020C4F218
:100740000200854207D100F031F804E000F042F8E1
:1007500001E000F035F828463146224600F002F864
:1007600070BD000080B549004FF0030CD0F800E0E8
:100770000CFA01F32EEA03030360036802FA01F1A5
:100780001943016080BD000080B549004FF0030CA3
:10079000D0F80CE00CFA01F32EEA0303C360C3683F
:1007A00002FA01F11943C16080BD000043F6300038
:1007B000C4F20200016841F00101016070470000CD
:1007C00043F63000C4F20200016841F0020101600A
:1007D0007047000043F63000C4F20200016841F0A7
:1007E000040101607047000043F60800C4F20200F3
:1007F000D0F8F81321F00F01C0F8F813D0F8F8136F
:1008000041F00201C0F8F81350F8081C41F0010152
:1008100040F8081C50F8081C8907FBD550F8081C44
:10082000542221F0807140F8081C50F8041C21F477
:10083000800140F8041C50F8041C40F8041C50F8D7
:10084000041C62F38E1140F8041C50F8041C0822AA
:1008500062F3050140F8041C50F8041C21F44031F7
:1008600040F8041C50F8081C41F0807140F8081C46
:1008700050F8081C8901FBD4016821F003010160D4
:10088000016841F002010160016801F00C010829D2
:10089000FAD1016821F0F0010160016821F4E05112
:1008A0000160016841F480510160016821F46041F8
:1008B000016040F200004BF60051C2F20000C0F2AD
:1008C000015101607047000040F26C00C2F200006C
:1008D0000168002908BF704701680139016070474D
:1008E00080B54EF21001CEF2000154230A6858433D
:1008F000002201380A6048608A60086840F00400FD
:100900000860086840F002000860086840F00100D4
:10091000086000F0B5F980BD4EF68850CEF20000B8
:10092000016841F4700101604FF0006140F8801CE3
:100930007047000080B54FF0804000F0E5F90028D6
:1009400008BF80BD40F28000C2F2000001680131A2
:1009500001604FF0804000F0ABF980BDC16841F00C
:100960000101C1607047000010B5044600F04CF86A
:100970002046FFF7F3FF40F6FF30C4F20000844248
:1009800012DD43F6FF70C4F2010084421DDC40F624
:100990000040C4F20000844225D00020C4F20100CF
:1009A000844226D1192427E0B4F1804F1DD040F2B3
:1009B0000040C4F2000084421DD040F60000C4F2A2
:1009C0000000844215D11E2416E044F20000C4F257
:1009D000010084420BD044F60000C4F201008442BE
:1009E00007D11A2408E0322406E01C2404E018246D
:1009F00002E0002400E01D24204600F019F9204602
:100A000000F046F910BD000010B5044640F6FF3076
:100A1000C4F20000844219DD43F6FF70C4F2010005
:100A200084422BDC40F60040C4F2000084423AD0FD
:100A30000020C4F20100844258D143F64000C4F2C1
:100A40000200426842F0010242604FE0B4F1804F80
:100A500032D040F20040C4F2000084423ED040F662
:100A60000000C4F20000844240D143F64000C4F2CA
:100A70000200026842F00402026037E044F2000023
:100A8000C4F20100844220D044F60000C4F2010008
:100A900084422BD143F64000C4F20200426842F483
:100AA0008022426022E043F64000C4F20200026865
:100AB00042F00802026019E043F64000C4F202006E
:100AC000026842F00102026010E043F64000C4F206
:100AD0000200426842F48032426007E043F6400080
:100AE000C4F20200026842F002020260204600F0F6
:100AF00009F8206820F010002060206840F0010014
:100B0000206010BD42F2CF0201EB810182624FF002
:100B1000FF3202EB4101C1627047000080B543F62D
:100B20003000C4F20200016941F2171241F40031B1
:100B30000161016841F0010101600020C4F202007E
:100B4000016821F0F0010160016841F0A00101603D
:100B5000016A41F4EE410162816841F0F001816077
:100B6000C16821F0F001C160C16841F05001C1606D
:100B7000416821F00C01416044F20C40C4F20000D5
:100B8000016821F400510160016821F48051016085
:100B9000016821F480610160416821F440514160A5
:100BA000016821F40041016050F8041C114340F831
:100BB000041C016841F00C010160816841F0C00132
:100BC0008160016841F400510160016841F0200139
:100BD00001602620012100F063F8262000F038F89B
:100BE00080BD000062B14FF0000C00BF03681B061F
:100BF000FCD511F80C300CF1010C94454360F5D193
:100C000001684906FCD5016821F040010160704788
:100C1000C1B200F01F00012202FA00F04EF20012F1
:100C2000CEF2000242EAD10121F0030108607047D0
:100C3000C1B200F01F00012202FA00F04EF20012D1
:100C4000CEF2000242EAD10121F0030108607047B0
:100C5000C1B200F01F00012202FA00F04EF20012B1
:100C6000CEF2000242EAD10121F003010860704790
:100C7000E422C0F2E002090162F31F200170704714
:100C80004EF62350CEF20000302101707047000074
:100C9000E421C0F2E00161F31F20402101707047A0
:100CA000E422C0F2E002090162F31F2001707047E4
:100CB000016900210161704743F61442C4F2010248
:100CC0000121136801FA00F018431060704700001A
:100CD00040F26C01C2F20001086000BF0868002801
:100CE000FCD1704710B582B004468DF8070044F27D
:100CF0000040C4F200000DF107010122FFF772FF6E
:100D0000204602B010BD0000006900F001007047ED
:100D100043F61441C4F20101096821FA00F000F021
:100D20000100704700F040F840F2800640F268078A
:100D300040F2780840F27409C2F2000610A4C2F230
:100D40000007C2F20008C2F200090FF24C0A0025A7
:100D500004E000BF4FF47A70FFF7BAFF3168204615
:100D6000FFF78EFA38680128F4D1D8F80000D9F8D6
:100D70000010411A5046FFF783FA3D60EAE700BFD2
:100D8000636F756E742076616C75652069732020C1
:100D90002564206D730D0A0073656320697320203C
:100DA0002564206D730D0A0010B5FFF71DFDFFF7D8
:100DB000B5FE0120FFF794FD40F60004C4F20204E2
:100DC00020460D210022FFF7A9FC20460D2100221C
:100DD0000023FFF7E1FB20460D210122FFF7D4FCA1
:100DE0004FF080400121FFF7BFFD10BDF1EE100A6A
:100DF0004FF6FF71C0F2C03120EA010040F04070B0
:100E0000E1EE100A70470000280E000800000020E4
:100E100008000000D4010008300E0008080000207F
:100E200080060000F00100080024F400000000002B
:040000050800019955
:00000001FF
