:020000040800F2
:100000008007002051020008590200085B02000826
:100010005D0200085F0200086102000800000000A5
:100020000000000000000000000000006302000863
:100030006502000800000000670200087113000854
:100040006B0200086B0200086B0200086B020008DC
:100050006B0200086B0200086B0200086B020008CC
:100060006B0200086B0200086B0200086B020008BC
:100070006B0200086B0200086B0200086B020008AC
:100080006B0200086B0200086B0200080000000011
:10009000000000000000000000000000690F0008E0
:1000A0006B0200086B0200086B0200086B0200087C
:1000B0006B0200086B0200086B0200086B0200086C
:1000C0006B0200086B0200086B0200086B0200085C
:1000D0006B0200086B0200086B02000800000000C1
:1000E0006B0200086B0200086B02000800000000B1
:1000F0000000000000000000000000006B0200088B
:10010000000000006B0200086B0200086B02000890
:1001100000000000000000000000000000000000DF
:100120006B0200086B0200086B0200086B020008FB
:100130006B0200080000000000000000000000004A
:100140000000000000000000000000006B0200083A
:100150006B0200086B0200086B0200086B020008CB
:100160006B0200086B0200080000000000000000A5
:10017000000000000000000000000000000000007F
:10018000000000006B0200080000000000000000FA
:100190006B0200086B02000800F002F800F049F85A
:1001A0000AA090E8000C82448344AAF10107DA45D2
:1001B00001D100F03EF8AFF2090EBAE80F0013F0DB
:1001C000010F18BFFB1A43F001031847381700004E
:1001D00058170000103A24BF78C878C1FAD85207DF
:1001E00024BF30C830C144BF04680C6070470000B1
:1001F0000023002400250026103A28BF78C1FBD830
:10020000520728BF30C148BF0B607047642900F017
:100210007F80002070471FB501F0B0FA9DE8030011
:1002200000F01CFD00F03CFA1FBD10B500F0A1FA73
:1002300010BD00F004FB1146FFF7EDFF01F022F9BD
:1002400000F0B2FC03B4FFF7F0FF03BC00F0F8FDD0
:100250000948804709480047FEE7FEE7FEE7FEE75A
:10026000FEE7FEE7FEE7FEE7FEE7FEE70448054996
:10027000054A064B70470000E91300089901000881
:1002800080010020800700208003002080030020E0
:100290000FB4044910B503AA029800F0E7F810BCA7
:1002A0005DF814FB6C0000202DE9F0410E46044679
:1002B000002020622046E168884730B3252805D019
:1002C000D4E901219047206A401CF2E7E16820460A
:1002D00000278847050018D0A5F14100192802D849
:1002E00020354FF400673246294620462760FFF745
:1002F0008DFF40B1012804D0F61D26F00706083610
:10030000D8E7361DD6E72846DAE7206ABDE8F0814F
:100310002DE9F0410646002410687529314616A5DE
:1003200010D0AFF30080002802DA404213A507E0A6
:1003300031688A0701D512A502E0490704D511A545
:10034000012401E0AFF3008000210A2206F1240716
:1003500009E0B0FBF2FCB0FBF2F302FB1C00303012
:1003600078541846491C0028F3D123462A463046C3
:10037000BDE8F04100F021B8000000002D000000B1
:100380002B0000002000000010B5044603E001F03F
:10039000E8F9401C09D014F8010B05490028F6D1F2
:1003A000BDE810400A2001F0DCB94FF0FF3010BD6D
:1003B0006C0000207047704770472DE9F0470D46EC
:1003C00099469246044600F124080168880604D53F
:1003D000E06921F01001216000E00120A84201DD68
:1003E000471B00E00027A1697A1902EB0900081AEF
:1003F000A0612078C00602D42046AFF3008000261A
:1004000008E0D4E901211AF806009047206A401C50
:10041000761C20624E45F4DB2078C0060AD52046C3
:10042000AFF3008006E0D4E9012130209047206A34
:10043000401C2062381EA7F10107F4DC07E0D4E974
:10044000012118F805009047206A401C2062281EF0
:10045000A5F10105F3DC2046AFF30080207800060B
:1004600002D50220BDE8F0870120FBE7074B70B5FD
:100470000D467B4400F011F80446284600F020F8B1
:1004800010B14FF0FF3070BD204670BDED1200007E
:1004900001694A1C02610878704700B58FB0CDE948
:1004A00001310021059105497944CDE90310114638
:1004B0006846FFF7F9FE0FB000BD0000E5FFFFFF43
:1004C000007B00F0800070472DE9F04705460C46A0
:1004D000C86820F4201040F48000C860800602D56F
:1004E000084600F0A2FAE06841F282014FF0FF39BD
:1004F0000140022903D0204600F040FAB5E000F4A4
:100500002041B1F5004F0FD1C00306D56168E06A04
:10051000884200D80846606006E02069E0626060BA
:10052000606900F086F9A061A0680022EEB20028A0
:100530000DDAE1688B050AD4C043A06041F4903025
:100540002260E0606068411C61600670A5E0E068C0
:100550009046226040F40050E060206968BB60690A
:1005600000F059F9012704F12405A0B1A08910F485
:10057000407F08D0E06900F087F9206118B1E06899
:1005800040F4006016E0E7612561E06820F4407007
:1005900040F480600EE0E06900F076F90028206108
:1005A000F1D0E06840F4006010F4407FE06002D1D8
:1005B00040F48070E06020696060E06825696FF059
:1005C000010AC1051FD56168E06A884200D8084663
:1005D000411B04D02246284600F0DAF9F0BBE0685F
:1005E000010203D5E562C4E9015854E0691CE162E7
:1005F0006160E16940F48030491EC4E90210304670
:100600002E70BDE8F087010202D500F480320AE0C6
:100610006068411C61600670E0680A2E40F480301A
:10062000E06006D00022E16A6068814203D90B468F
:1006300002E00122F7E70346A7895B1B7F0503D48D
:10064000E7699F4200DDE2B1814200D80146E562E0
:100650000F1AC4E90158002B09DD00E005E022462D
:100660001946284600F094F908B14846C9E747B151
:10067000A069E5626560C01BA061E06840F0100001
:10068000E060E068000208D56168A069E562491B86
:1006900008446560A0615046B3E73046B1E700000A
:1006A00010B54248542100F08FFA4148542100F01F
:1006B0008BFA4048542100F087FA3F493B483C4AB6
:1006C0003F4B08603D490A603A491960531C036575
:1006D000481C1065012008653B48344A39A178441C
:1006E00000F0C4F920B9384878440A3800F065FAB7
:1006F00037482F4A35A1784400F0B8F920B934487A
:1007000078440A3800F059FA32482A4A2FA178442E
:1007100000F0ACF920B92F4878440A3800F04DFABF
:1007200040232248DC000021224600F003F920B1DA
:1007300025487844543800F040FA1D4822464023AA
:10074000002100F0F7F820B121487844543800F037
:1007500034FA184822461023002100F0EBF8002854
:1007600006D01C487844BDE81040563800F025BA41
:1007700010BD104870B5006D20F001040B4800F06A
:10078000EDF90B4800F0EAF90A4800F0E7F909E052
:10079000206D20F00105204600F0E0F9204600F031
:1007A000A2F82C46002CF3D170BD000018000020E8
:1007B0006C000020C0000020000000200400002089
:1007C0000800002072000000B41000007700000054
:1007D000A01000008C1000000EB5CDE9000100F063
:1007E0000FFB029069460120ABBE0EBD08B56946FD
:1007F00000900220ABBE08BD1FB58DE8070069461A
:100800000520ABBE04B010BD1FB58DE80F006946D2
:100810000620ABBEF6E708B5694600900920ABBEDE
:1008200008BD1CB5CDE9000169460A20ABBE1CBD60
:10083000704708B5694600900C20ABBE08BD7546F0
:1008400000F0EAF9AE4605006946534620F007007D
:10085000854618B020B5FFF709FDBDE820404FF0F0
:1008600000064FF000074FF000084FF0000BAC46B9
:10087000ACE8C009ACE8C009ACE8C009ACE8C00904
:1008800021F007018D46704770B5064600F0CAF9A1
:10089000056806F10B0020F00704B4429CBF00205D
:1008A00070BD2B466A68BAB11068A04210D304F13B
:1008B000080188423CBF5068586007D3516810193E
:1008C00041601168091B016058601460101D70BD03
:1008D00013465268002AE7D12146284600F0AAF9BB
:1008E0000028DED170BD70B50446051F00F09AF9EE
:1008F0000068002C14BF446870BD002C18BFAC42C7
:100900003CBF20466468F8D301680A18AA4218BFA1
:10091000456003D12A6805461144016028684119E1
:10092000A1421CBF6C6070BD6168696021680844A9
:10093000286070BD70B5C468A50713D0650211D4D6
:10094000B2F5807F09D0B2F5007F06D0B2F5806F96
:1009500008D1012300F1240106E05D1E6FF07F46FF
:10096000B54201D3012070BD0161C361416024F42F
:1009700070611143C160002070BD0000C16821F4A6
:10098000001141F08001C160002181600160704769
:100990002DE9F047814614460E464FF0FF383248A5
:1009A000D5685769054209D03846A169FFF739FF74
:1009B000002811DB2C48C0430540E5602B46324639
:1009C00049463846FFF718FFA16920F00042B21AE5
:1009D00011440028A16103D02046FFF7CFFF404615
:1009E000BDE8F08770B504460569C06A6168884251
:1009F00000D80846E16821F42011E160C90312D54E
:100A0000A84208D02246411B2846FFF7C1FF10B17B
:100A10004FF0FF3070BD0020E562C4E90150E0688E
:100A200020F48030E060002070BD10B50446C0683E
:100A300020F02000E060A16AA06988420DD0204625
:100A4000FFF7D0FFE06820F4405040F01000E06075
:100A5000A06AA0612069E062606044F24001E06841
:100A60008843E06010BD0000100002002DE9F04155
:100A70000C461646070047D0104600F06FF8207865
:100A8000611C61280AD0722802D077283CD102E08C
:100A90000125002405E00225042402E0082448F290
:100AA000020511F8010B2B2806D0622809D011F895
:100AB000010C74280AD00BE045F0030544F0020451
:100AC000EFE745F0040544F00104EAE744F01004C0
:100AD00038462146FFF780FE411C15D000213161C8
:100AE00071604FF40071F560F1617061200704D509
:100AF00030460222002100F0E7F8306D40F001009E
:100B000030653046BDE8F0810020FBE72DE9F0417B
:100B10000D460646104C206DC10704D0410804D094
:100B200020F00104F7E722460EE05420FFF7ACFE68
:100B300007000ED0206D47F00101084354212065C5
:100B4000384600F041F83A4629463046BDE8F041C3
:100B50008CE70020D6E70000180000202DE9F047C0
:100B600004464FF000094FF0FF37C568D4E904860A
:100B7000A80707D02046FFF735FF3046FFF736FEBF
:100B8000002802DA3846BDE8F087280502D540463D
:100B9000FFF7A9FE4C21204600F016F8206D20F04A
:100BA000010020654846EEE710B50446AFF300802B
:100BB0002046BDE81040FFF745BB10B500F006F930
:100BC000BDE8104000F0FCB84FF0000200B513463D
:100BD00094469646203922BFA0E80C50A0E80C505D
:100BE000B1F12001BFF4F7AF090728BFA0E80C500E
:100BF00048BF0CC05DF804EB890028BF40F8042B07
:100C000008BF704748BF20F8022B11F0804F18BF73
:100C100000F8012B704700000048704714010020C5
:100C200070470000004870471C0100207047704763
:100C30007047704738B504460A4600206946AFF34E
:100C40000080002808BF38BD02460099204600F009
:100C5000FDF8012038BD012000F04CB9F8B5AFF324
:100C60000080054600200C46102000BF0646A8194B
:100C7000A0420DD9324669460020AFF3008007003C
:100C800008BF00F037F90098A04218BF0546C41904
:100C9000FFF7C8FF05600746F01D20F00700461962
:100CA000284600F00AF8B44208BFF8BDA21B31463E
:100CB0003868BDE8F84000F0C9B800210160C0E91B
:100CC00001107047102070472DE9F0410446164688
:100CD0000D464769007B80072ED03846FFF79BFD05
:100CE00050BB3EB3012E02D0022E25D104E0204697
:100CF00000F0C6F805441DE03846FFF79AFDE168AC
:100D0000002841F01001E16005DA2046FFF736FEC9
:100D10000120BDE8F081C9030BD56268E16A914208
:100D200000D81146A26911442269891A814200DD66
:100D300008460544002D01DA0220EAE7E16A60680E
:100D4000E268814206D29103E06203D522F40031C9
:100D500041F01002A6690027AE4213DCE16A81422D
:100D600001D90B4600E0034603EB060C2369ACEB0C
:100D7000030CAC4506DD814201D98C4600E0844677
:100D80009C4505D1A760276042F02000A5620DE0D8
:100D9000AD1BE669AE1B8142A66000D90846C01AA9
:100DA000281A20605819606022F02000034908408A
:100DB000E060002084F84870ABE70000BFCFD7FFA9
:100DC000002801D000F03CB87047000010B5014683
:100DD00002A000F076F8012010BD000053494752F0
:100DE000545245443A2052656469726563743A20EE
:100DF00063616E2774206F70656E3A2000000000FA
:100E000010B5431C02E010F8011B71B18107FAD143
:100E10004FF0013202C88C1A8C4314EAC211F9D087
:100E2000C01A0A0603D0C01E10BDC01A10BD0A04A5
:100E300001D0801E10BD0902FCD0401E10BD000074
:100E400001491820ABBEFEE72600020003464068B9
:100E50008C46002818BF88423CBF03464068F8D340
:100E600018681844884207D00CF1030020F00700EE
:100E7000001D411A521A0146081D0A60FFF733BDD2
:100E800010B50146C268900703D0900607D5886A5E
:100E90000AE000F03DF801210160881E10BD8B6959
:100EA000486818440B69C01A91F848301BB191F892
:100EB0004910401A10BD1103FCD50028FADD401E70
:100EC00010BD70B505460C460A2000E06D1C00F010
:100ED00018F835B128780028F8D102E0641C00F039
:100EE00010F814B120780028F8D1BDE870400A202D
:100EF00000F007B810B500F00FF8BDE81040FFF79C
:100F00005FBF08B569468DF800000320ABBE08BD81
:100F1000004870471401002010B5012805D00021B9
:100F200003A0FFF7CEFF012010BD09A1F8E70000E4
:100F300053494752544D454D3A204F7574206F66C2
:100F40002068656170206D656D6F7279000000002A
:100F50003A2048656170206D656D6F727920636F0E
:100F6000727275707465640080B5082000F080FAB4
:100F7000002808BF80BD00F02BFA002000F0D8FA4E
:100F800040F27410C2F2000001210160082000F05C
:100F900059FA80BD80B543F60042C4F20102012136
:100FA0001368814019430528116003D2062000F020
:100FB00029FA80BD0A2803D2172000F023FA80BD49
:100FC0000F2888BF80BD282000F01CFA80BD0000DB
:100FD0002DE9F0410D4643F64401C4F20201984662
:100FE0000B6843F6084CC4F2010C43F480430B60D9
:100FF0000C21AE08ACF5806401EA850E6FF00F019C
:1010000054F8267001FA0EF107EA0103A0F18041BD
:10101000A1F5023707F500614FEAB121072944F82D
:10102000263000F25B80DFE801F0041321384959D3
:10103000595407F580614FEAB1210023062944F88D
:1010400026304BD8DFE801F00412293A4A4A45001D
:10105000012101FA0EF34FEAB721052944F82630A1
:101060003CD8DFE801F0031A2B3B3B3641F6004346
:101070000221C4F2020301FA0EF1984244F826104C
:1010800027D041F20001C4F20201884216D040F696
:101090000041C4F20201884220D141F600430321FD
:1010A000C4F2020301FA0EF1984244F8261010D05F
:1010B00041F20001C4F2020188420FD141F600431F
:1010C0000421C4F2020301FA0EF1984244F82610FA
:1010D00004D1072000FA0EF044F82600022A0CD0B2
:1010E000012A16D0E2B943F60C41C4F201010120F5
:1010F0000A68A8401043086012E043F60C41C4F2AD
:10110000010101200A68A84002430A60DCF80010CF
:1011100003E00120DCF80010A8400843CCF80000F0
:101120002846FFF737FF052D01D2062607E00A2DD6
:1011300001D2172603E00026102D38BF282630469E
:10114000414600F06FF9304600F05CF9BDE8F081EF
:1011500070B5054640F60000C4F202001446854210
:101160000E460DD040F20040C4F2020085420AD083
:101170000020C4F20200854207D100F06BF804E0C1
:1011800000F07CF801E000F06FF828463146224676
:1011900000F002F870BD000080B549004FF0030C6C
:1011A000D0F800E00CFA01F32EEA030303600368B1
:1011B00002FA01F11943016080BD000080B54900C9
:1011C0004FF0030CD0F808E00CFA01F32EEA030309
:1011D0008360836802FA01F11943816080BD0000D9
:1011E000012A0AD0002A18BF70470122436802FA78
:1011F00001F123EA0101416070470122436802FACC
:1012000001F119434160704780B549004FF0030C6C
:10121000D0F80CE00CFA01F32EEA0303C360C368B4
:1012200002FA01F11943C16080BD0000012A0AD011
:10123000002A18BF70470122436902FA01F123EA2C
:101240000101416170470122436902FA01F119432A
:101250004161704743F63000C4F20200016841F07A
:10126000010101607047000043F63000C4F2020043
:10127000016841F0020101607047000043F6300050
:10128000C4F20200016841F00401016070470000EF
:1012900043F60800C4F20200D0F8F81321F00F0161
:1012A000C0F8F813D0F8F81341F00201C0F8F813B1
:1012B00050F8081C41F0010140F8081C50F8081CC7
:1012C0008907FBD550F8081C542221F0807140F8A2
:1012D000081C50F8041C21F4800140F8041C50F84C
:1012E000041C40F8041C50F8041C62F38E1140F8F2
:1012F000041C50F8041C082262F3050140F8041C89
:1013000050F8041C21F4403140F8041C50F8081C2B
:1013100041F0807140F8081C50F8081C8901FBD48A
:10132000016821F003010160016841F002010160E0
:10133000016801F00C010829FAD1016821F0F001DF
:101340000160016821F4E0510160016841F48051BD
:101350000160016821F46041016040F20C004BF62D
:101360000051C2F20000C0F201510160704700005C
:1013700040F27810C2F200000168002908BF7047EF
:10138000016801390160704780B544F6D351C1F25C
:101390006201A0FB01014EF21000CEF200000268D3
:1013A0004FF0FF33002203EB911102604160826035
:1013B000016841F004010160016841F0020101602F
:1013C000016841F00101016000F034F880BD0000C7
:1013D00040F27810C2F20000002101604EF21800C5
:1013E000CEF20000016070474EF68850CEF2000049
:1013F000016841F4700101604FF0006140F8801C09
:1014000070470000C1B200F01F00012202FA00F094
:101410004EF20012CEF2000242EAD10121F00301A5
:1014200008607047E422C0F2E002090162F31F2065
:10143000017070474EF62350CEF20000302101704B
:101440007047000043F61442C4F201020121136800
:1014500001FA00F0184310607047000040F2781164
:10146000C2F20001086000BF08680028FCD1704784
:1014700043F61441C4F20101096821FA00F000F0BA
:101480000100704700F032F813A0FEF77DFF40F234
:101490007C1540F27416C2F20005C2F200060FF28B
:1014A00040080127002403E028680A2808BF2C60B0
:1014B000286800F03DF84FF47A70FFF7CFFF2868F6
:1014C0000130286030680128EED140460121FEF746
:1014D000DFFE34602F60E7E74952310D0000000065
:1014E000495231203D2025640D0A000010B5FFF758
:1014F000CFFE40F21000C2F200000068FFF744FF88
:1015000000F05EF840F20044C4F2020420460821D4
:101510000022FFF71DFE2046082102220023FFF7CC
:1015200057FD204608210122FFF76EFE10BD000086
:101530002DE9F04F81B041F2A4710022C0F6000104
:10154000C4F2020201EB40174FF6FB7A41F6E405C4
:1015500007F110090024C7F6FF7AC0F6000502F56E
:10156000806B02F500664FF0010802E00134082CA0
:1015700023D0062C0DD808FA04F010F0670F08D01D
:1015800055F8241057F824200020C4F20200FFF779
:101590004DFE04EA0A00032806D155F8241057F836
:1015A00024205846FFF742FE042CDFD1D9F8002052
:1015B00030460721FFF73AFED8E701B0BDE8F08FCB
:1015C00070B50025C4F20205284605210122FFF767
:1015D000BFFD284606210122FFF7BAFD2846072154
:1015E0000122FFF7B5FD05F58064204606210122A2
:1015F000FFF7AEFD05F50066304607210122FFF733
:10160000A7FD284609210122FFF7A2FD284608214F
:101610000122FFF79DFD20460A210122FFF798FDD8
:10162000284605210122FFF7B7FD284605210222A1
:10163000FFF7C4FD284605210022FFF7D1FD28460B
:1016400005210022FFF7E0FD284606210122FFF7D1
:10165000A3FD284606210222FFF7B0FD28460621F9
:101660000022FFF7BDFD284606210022FFF7CCFD32
:10167000284607210122FFF78FFD28460721022275
:10168000FFF79CFD284607210022FFF7A9FD284609
:1016900007210022FFF7B8FD204606210122FFF7AF
:1016A0007BFD204606210222FFF788FD2046062109
:1016B0000022FFF795FD204606210022FFF7A4FD3A
:1016C000304607210122FFF767FD3046072102223D
:1016D000FFF774FD304607210022FFF781FD3046F9
:1016E00007210022FFF790FD284609210122FFF77C
:1016F00053FD284609210222FFF760FD28460921F3
:101700000022FFF76DFD284609210022FFF77CFD2E
:10171000284608210122FFF73FFD28460821022222
:10172000FFF74CFD284608210022FFF759FD284607
:1017300008210022FFF768FD20460A210122FFF759
:101740002BFD20460A210222FFF738FD20460A2100
:101750000022FFF745FD20460A210022FFF754FD35
:1017600070BD8A68002A01DCFEF7AEBE521E8A6098
:101770004A68C0B2531C4B6010707047F1EE100AFB
:101780004FF6FF71C0F2C03120EA010040F0407016
:10179000E1EE100A70473A7474003A7474003A74B7
:1017A00074000000000000000000000000000000C5
:1017B0000000000000000000000000000100000028
:1017C0000100000001000000000000000000000017
:1017D0000100000001000000010000000100000005
:1017E00001000000000000000000000001000000F7
:1017F00000000000000000000100000000000000E8
:1018000001000000000000000000000000000000D7
:1018100000000000010000000100000000000000C6
:1018200001000000010000000000000000000000B6
:1018300001000000010000000000000000000000A6
:101840000100000000000000010000000000000096
:101850000000000001000000000000000000000087
:101860000100000000000000010000000000000076
:101870000000000000000000000000000000000068
:101880000100000000000000000000000000000057
:101890000100000001000000000000000100000045
:1018A0000100000000000000000000000000000037
:1018B0000000000000000000000000000000000028
:1018C0000100000000000000000000000000000017
:1018D0000000000001000000000000000000000007
:1018E00001000000050000000600000007000000E5
:1018F00006000000070000000900000008000000CA
:101900000A0000002819000800000020180000004C
:10191000D4010008401900081800002068070000E2
:10192000F0010008000000000000000000000000BE
:10193000000000000024F40000BD010500000000CC
:040000050800019955
:00000001FF
